{
  "_format": "hh-sol-artifact-1",
  "contractName": "MinterNFT",
  "sourceName": "contracts/MinterNFT.sol",
  "abi": [
    {
      "inputs": [
        {
          "internalType": "string",
          "name": "_tokenUri",
          "type": "string"
        }
      ],
      "stateMutability": "payable",
      "type": "constructor"
    },
    {
      "anonymous": false,
      "inputs": [
        {
          "indexed": true,
          "internalType": "address",
          "name": "owner",
          "type": "address"
        },
        {
          "indexed": true,
          "internalType": "address",
          "name": "approved",
          "type": "address"
        },
        {
          "indexed": true,
          "internalType": "uint256",
          "name": "tokenId",
          "type": "uint256"
        }
      ],
      "name": "Approval",
      "type": "event"
    },
    {
      "anonymous": false,
      "inputs": [
        {
          "indexed": true,
          "internalType": "address",
          "name": "owner",
          "type": "address"
        },
        {
          "indexed": true,
          "internalType": "address",
          "name": "operator",
          "type": "address"
        },
        {
          "indexed": false,
          "internalType": "bool",
          "name": "approved",
          "type": "bool"
        }
      ],
      "name": "ApprovalForAll",
      "type": "event"
    },
    {
      "anonymous": false,
      "inputs": [
        {
          "indexed": true,
          "internalType": "address",
          "name": "previousOwner",
          "type": "address"
        },
        {
          "indexed": true,
          "internalType": "address",
          "name": "newOwner",
          "type": "address"
        }
      ],
      "name": "OwnershipTransferred",
      "type": "event"
    },
    {
      "anonymous": false,
      "inputs": [
        {
          "indexed": true,
          "internalType": "address",
          "name": "from",
          "type": "address"
        },
        {
          "indexed": true,
          "internalType": "address",
          "name": "to",
          "type": "address"
        },
        {
          "indexed": true,
          "internalType": "uint256",
          "name": "tokenId",
          "type": "uint256"
        }
      ],
      "name": "Transfer",
      "type": "event"
    },
    {
      "inputs": [
        {
          "internalType": "address",
          "name": "to",
          "type": "address"
        },
        {
          "internalType": "uint256",
          "name": "tokenId",
          "type": "uint256"
        }
      ],
      "name": "approve",
      "outputs": [],
      "stateMutability": "nonpayable",
      "type": "function"
    },
    {
      "inputs": [
        {
          "internalType": "address",
          "name": "owner",
          "type": "address"
        }
      ],
      "name": "balanceOf",
      "outputs": [
        {
          "internalType": "uint256",
          "name": "",
          "type": "uint256"
        }
      ],
      "stateMutability": "view",
      "type": "function"
    },
    {
      "inputs": [
        {
          "internalType": "uint256",
          "name": "tokenId",
          "type": "uint256"
        }
      ],
      "name": "getApproved",
      "outputs": [
        {
          "internalType": "address",
          "name": "",
          "type": "address"
        }
      ],
      "stateMutability": "view",
      "type": "function"
    },
    {
      "inputs": [
        {
          "internalType": "address",
          "name": "owner",
          "type": "address"
        },
        {
          "internalType": "address",
          "name": "operator",
          "type": "address"
        }
      ],
      "name": "isApprovedForAll",
      "outputs": [
        {
          "internalType": "bool",
          "name": "",
          "type": "bool"
        }
      ],
      "stateMutability": "view",
      "type": "function"
    },
    {
      "inputs": [],
      "name": "isPublicMintEnabled",
      "outputs": [
        {
          "internalType": "bool",
          "name": "",
          "type": "bool"
        }
      ],
      "stateMutability": "view",
      "type": "function"
    },
    {
      "inputs": [],
      "name": "mint",
      "outputs": [],
      "stateMutability": "payable",
      "type": "function"
    },
    {
      "inputs": [],
      "name": "mintPrice",
      "outputs": [
        {
          "internalType": "uint256",
          "name": "",
          "type": "uint256"
        }
      ],
      "stateMutability": "view",
      "type": "function"
    },
    {
      "inputs": [],
      "name": "name",
      "outputs": [
        {
          "internalType": "string",
          "name": "",
          "type": "string"
        }
      ],
      "stateMutability": "view",
      "type": "function"
    },
    {
      "inputs": [],
      "name": "owner",
      "outputs": [
        {
          "internalType": "address",
          "name": "",
          "type": "address"
        }
      ],
      "stateMutability": "view",
      "type": "function"
    },
    {
      "inputs": [
        {
          "internalType": "uint256",
          "name": "tokenId",
          "type": "uint256"
        }
      ],
      "name": "ownerOf",
      "outputs": [
        {
          "internalType": "address",
          "name": "",
          "type": "address"
        }
      ],
      "stateMutability": "view",
      "type": "function"
    },
    {
      "inputs": [],
      "name": "renounceOwnership",
      "outputs": [],
      "stateMutability": "nonpayable",
      "type": "function"
    },
    {
      "inputs": [
        {
          "internalType": "address",
          "name": "from",
          "type": "address"
        },
        {
          "internalType": "address",
          "name": "to",
          "type": "address"
        },
        {
          "internalType": "uint256",
          "name": "tokenId",
          "type": "uint256"
        }
      ],
      "name": "safeTransferFrom",
      "outputs": [],
      "stateMutability": "nonpayable",
      "type": "function"
    },
    {
      "inputs": [
        {
          "internalType": "address",
          "name": "from",
          "type": "address"
        },
        {
          "internalType": "address",
          "name": "to",
          "type": "address"
        },
        {
          "internalType": "uint256",
          "name": "tokenId",
          "type": "uint256"
        },
        {
          "internalType": "bytes",
          "name": "data",
          "type": "bytes"
        }
      ],
      "name": "safeTransferFrom",
      "outputs": [],
      "stateMutability": "nonpayable",
      "type": "function"
    },
    {
      "inputs": [
        {
          "internalType": "address",
          "name": "operator",
          "type": "address"
        },
        {
          "internalType": "bool",
          "name": "approved",
          "type": "bool"
        }
      ],
      "name": "setApprovalForAll",
      "outputs": [],
      "stateMutability": "nonpayable",
      "type": "function"
    },
    {
      "inputs": [
        {
          "internalType": "string",
          "name": "newBaseTokenUri",
          "type": "string"
        }
      ],
      "name": "setBaseTokenUri",
      "outputs": [],
      "stateMutability": "nonpayable",
      "type": "function"
    },
    {
      "inputs": [
        {
          "internalType": "bool",
          "name": "newPublicMintStatus",
          "type": "bool"
        }
      ],
      "name": "setIsPublicMintEnabled",
      "outputs": [],
      "stateMutability": "nonpayable",
      "type": "function"
    },
    {
      "inputs": [
        {
          "internalType": "bytes4",
          "name": "interfaceId",
          "type": "bytes4"
        }
      ],
      "name": "supportsInterface",
      "outputs": [
        {
          "internalType": "bool",
          "name": "",
          "type": "bool"
        }
      ],
      "stateMutability": "view",
      "type": "function"
    },
    {
      "inputs": [],
      "name": "symbol",
      "outputs": [
        {
          "internalType": "string",
          "name": "",
          "type": "string"
        }
      ],
      "stateMutability": "view",
      "type": "function"
    },
    {
      "inputs": [
        {
          "internalType": "uint256",
          "name": "tokenId",
          "type": "uint256"
        }
      ],
      "name": "tokenURI",
      "outputs": [
        {
          "internalType": "string",
          "name": "",
          "type": "string"
        }
      ],
      "stateMutability": "view",
      "type": "function"
    },
    {
      "inputs": [],
      "name": "totalSupply",
      "outputs": [
        {
          "internalType": "uint256",
          "name": "",
          "type": "uint256"
        }
      ],
      "stateMutability": "view",
      "type": "function"
    },
    {
      "inputs": [
        {
          "internalType": "address",
          "name": "from",
          "type": "address"
        },
        {
          "internalType": "address",
          "name": "to",
          "type": "address"
        },
        {
          "internalType": "uint256",
          "name": "tokenId",
          "type": "uint256"
        }
      ],
      "name": "transferFrom",
      "outputs": [],
      "stateMutability": "nonpayable",
      "type": "function"
    },
    {
      "inputs": [
        {
          "internalType": "address",
          "name": "newOwner",
          "type": "address"
        }
      ],
      "name": "transferOwnership",
      "outputs": [],
      "stateMutability": "nonpayable",
      "type": "function"
    },
    {
      "inputs": [],
      "name": "withdraw",
      "outputs": [],
      "stateMutability": "nonpayable",
      "type": "function"
    },
    {
      "inputs": [],
      "name": "withdrawWallet",
      "outputs": [
        {
          "internalType": "address payable",
          "name": "",
          "type": "address"
        }
      ],
      "stateMutability": "view",
      "type": "function"
    }
  ],
  "bytecode": "0x6080604052604051620039e4380380620039e4833981810160405281019062000029919062000380565b6040518060400160405280600d81526020017f4d696e746572204149204e4654000000000000000000000000000000000000008152506040518060400160405280600381526020017f4d414900000000000000000000000000000000000000000000000000000000008152508160009081620000a691906200061c565b508060019081620000b891906200061c565b505050620000db620000cf6200011f60201b60201c565b6200012760201b60201c565b6000600781905550600060088190555080600a9081620000fc91906200061c565b506000600960006101000a81548160ff0219169083151502179055505062000703565b600033905090565b6000600660009054906101000a900473ffffffffffffffffffffffffffffffffffffffff16905081600660006101000a81548173ffffffffffffffffffffffffffffffffffffffff021916908373ffffffffffffffffffffffffffffffffffffffff1602179055508173ffffffffffffffffffffffffffffffffffffffff168173ffffffffffffffffffffffffffffffffffffffff167f8be0079c531659141344cd1fd0a4f28419497f9722a3daafe3b4186f6b6457e060405160405180910390a35050565b6000604051905090565b600080fd5b600080fd5b600080fd5b600080fd5b6000601f19601f8301169050919050565b7f4e487b7100000000000000000000000000000000000000000000000000000000600052604160045260246000fd5b62000256826200020b565b810181811067ffffffffffffffff821117156200027857620002776200021c565b5b80604052505050565b60006200028d620001ed565b90506200029b82826200024b565b919050565b600067ffffffffffffffff821115620002be57620002bd6200021c565b5b620002c9826200020b565b9050602081019050919050565b60005b83811015620002f6578082015181840152602081019050620002d9565b60008484015250505050565b6000620003196200031384620002a0565b62000281565b90508281526020810184848401111562000338576200033762000206565b5b62000345848285620002d6565b509392505050565b600082601f83011262000365576200036462000201565b5b81516200037784826020860162000302565b91505092915050565b600060208284031215620003995762000398620001f7565b5b600082015167ffffffffffffffff811115620003ba57620003b9620001fc565b5b620003c8848285016200034d565b91505092915050565b600081519050919050565b7f4e487b7100000000000000000000000000000000000000000000000000000000600052602260045260246000fd5b600060028204905060018216806200042457607f821691505b6020821081036200043a5762000439620003dc565b5b50919050565b60008190508160005260206000209050919050565b60006020601f8301049050919050565b600082821b905092915050565b600060088302620004a47fffffffffffffffffffffffffffffffffffffffffffffffffffffffffffffffff8262000465565b620004b0868362000465565b95508019841693508086168417925050509392505050565b6000819050919050565b6000819050919050565b6000620004fd620004f7620004f184620004c8565b620004d2565b620004c8565b9050919050565b6000819050919050565b6200051983620004dc565b62000531620005288262000504565b84845462000472565b825550505050565b600090565b6200054862000539565b620005558184846200050e565b505050565b5b818110156200057d57620005716000826200053e565b6001810190506200055b565b5050565b601f821115620005cc57620005968162000440565b620005a18462000455565b81016020851015620005b1578190505b620005c9620005c08562000455565b8301826200055a565b50505b505050565b600082821c905092915050565b6000620005f160001984600802620005d1565b1980831691505092915050565b60006200060c8383620005de565b9150826002028217905092915050565b6200062782620003d1565b67ffffffffffffffff8111156200064357620006426200021c565b5b6200064f82546200040b565b6200065c82828562000581565b600060209050601f8311600181146200069457600084156200067f578287015190505b6200068b8582620005fe565b865550620006fb565b601f198416620006a48662000440565b60005b82811015620006ce57848901518255600182019150602085019450602081019050620006a7565b86831015620006ee5784890151620006ea601f891682620005de565b8355505b6001600288020188555050505b505050505050565b6132d180620007136000396000f3fe60806040526004361061014b5760003560e01c80636817c76c116100b657806395d89b411161006f57806395d89b411461044b578063a22cb46514610476578063b88d4fde1461049f578063c87b56dd146104c8578063e985e9c514610505578063f2fde38b146105425761014b565b80636817c76c1461034d57806370a0823114610378578063715018a6146103b557806385d178f4146103cc5780638da5cb5b146103f757806395652cfa146104225761014b565b806318160ddd1161010857806318160ddd146102535780632373ac221461027e57806323b872dd146102a75780633ccfd60b146102d057806342842e0e146102e75780636352211e146103105761014b565b80630116bc2d1461015057806301ffc9a71461017b57806306fdde03146101b8578063081812fc146101e3578063095ea7b3146102205780631249c58b14610249575b600080fd5b34801561015c57600080fd5b5061016561056b565b6040516101729190611dd2565b60405180910390f35b34801561018757600080fd5b506101a2600480360381019061019d9190611e59565b61057e565b6040516101af9190611dd2565b60405180910390f35b3480156101c457600080fd5b506101cd610660565b6040516101da9190611f16565b60405180910390f35b3480156101ef57600080fd5b5061020a60048036038101906102059190611f6e565b6106f2565b6040516102179190611fdc565b60405180910390f35b34801561022c57600080fd5b5061024760048036038101906102429190612023565b610738565b005b61025161084f565b005b34801561025f57600080fd5b506102686108d6565b6040516102759190612072565b60405180910390f35b34801561028a57600080fd5b506102a560048036038101906102a091906120b9565b6108dc565b005b3480156102b357600080fd5b506102ce60048036038101906102c991906120e6565b610901565b005b3480156102dc57600080fd5b506102e5610961565b005b3480156102f357600080fd5b5061030e600480360381019061030991906120e6565b610a3a565b005b34801561031c57600080fd5b5061033760048036038101906103329190611f6e565b610a5a565b6040516103449190611fdc565b60405180910390f35b34801561035957600080fd5b50610362610ae0565b60405161036f9190612072565b60405180910390f35b34801561038457600080fd5b5061039f600480360381019061039a9190612139565b610ae6565b6040516103ac9190612072565b60405180910390f35b3480156103c157600080fd5b506103ca610b9d565b005b3480156103d857600080fd5b506103e1610bb1565b6040516103ee9190612187565b60405180910390f35b34801561040357600080fd5b5061040c610bd7565b6040516104199190611fdc565b60405180910390f35b34801561042e57600080fd5b5061044960048036038101906104449190612207565b610c01565b005b34801561045757600080fd5b50610460610c1f565b60405161046d9190611f16565b60405180910390f35b34801561048257600080fd5b5061049d60048036038101906104989190612254565b610cb1565b005b3480156104ab57600080fd5b506104c660048036038101906104c191906123c4565b610cc7565b005b3480156104d457600080fd5b506104ef60048036038101906104ea9190611f6e565b610d29565b6040516104fc9190611f16565b60405180910390f35b34801561051157600080fd5b5061052c60048036038101906105279190612447565b610da5565b6040516105399190611dd2565b60405180910390f35b34801561054e57600080fd5b5061056960048036038101906105649190612139565b610e39565b005b600960009054906101000a900460ff1681565b60007f80ac58cd000000000000000000000000000000000000000000000000000000007bffffffffffffffffffffffffffffffffffffffffffffffffffffffff1916827bffffffffffffffffffffffffffffffffffffffffffffffffffffffff1916148061064957507f5b5e139f000000000000000000000000000000000000000000000000000000007bffffffffffffffffffffffffffffffffffffffffffffffffffffffff1916827bffffffffffffffffffffffffffffffffffffffffffffffffffffffff1916145b80610659575061065882610ebc565b5b9050919050565b60606000805461066f906124b6565b80601f016020809104026020016040519081016040528092919081815260200182805461069b906124b6565b80156106e85780601f106106bd576101008083540402835291602001916106e8565b820191906000526020600020905b8154815290600101906020018083116106cb57829003601f168201915b5050505050905090565b60006106fd82610f26565b6004600083815260200190815260200160002060009054906101000a900473ffffffffffffffffffffffffffffffffffffffff169050919050565b600061074382610a5a565b90508073ffffffffffffffffffffffffffffffffffffffff168373ffffffffffffffffffffffffffffffffffffffff16036107b3576040517f08c379a00000000000000000000000000000000000000000000000000000000081526004016107aa90612559565b60405180910390fd5b8073ffffffffffffffffffffffffffffffffffffffff166107d2610f71565b73ffffffffffffffffffffffffffffffffffffffff1614806108015750610800816107fb610f71565b610da5565b5b610840576040517f08c379a0000000000000000000000000000000000000000000000000000000008152600401610837906125eb565b60405180910390fd5b61084a8383610f79565b505050565b600960009054906101000a900460ff1661089e576040517f08c379a000000000000000000000000000000000000000000000000000000000815260040161089590612657565b60405180910390fd5b600060016008546108af91906126a6565b90506108bb3382611032565b600860008154809291906108ce906126da565b919050555050565b60085481565b6108e4611050565b80600960006101000a81548160ff02191690831515021790555050565b61091261090c610f71565b826110ce565b610951576040517f08c379a000000000000000000000000000000000000000000000000000000000815260040161094890612794565b60405180910390fd5b61095c838383611163565b505050565b610969611050565b6000600b60009054906101000a900473ffffffffffffffffffffffffffffffffffffffff1673ffffffffffffffffffffffffffffffffffffffff16476040516109b1906127e5565b60006040518083038185875af1925050503d80600081146109ee576040519150601f19603f3d011682016040523d82523d6000602084013e6109f3565b606091505b5050905080610a37576040517f08c379a0000000000000000000000000000000000000000000000000000000008152600401610a2e90612846565b60405180910390fd5b50565b610a5583838360405180602001604052806000815250610cc7565b505050565b600080610a668361145c565b9050600073ffffffffffffffffffffffffffffffffffffffff168173ffffffffffffffffffffffffffffffffffffffff1603610ad7576040517f08c379a0000000000000000000000000000000000000000000000000000000008152600401610ace906128b2565b60405180910390fd5b80915050919050565b60075481565b60008073ffffffffffffffffffffffffffffffffffffffff168273ffffffffffffffffffffffffffffffffffffffff1603610b56576040517f08c379a0000000000000000000000000000000000000000000000000000000008152600401610b4d90612944565b60405180910390fd5b600360008373ffffffffffffffffffffffffffffffffffffffff1673ffffffffffffffffffffffffffffffffffffffff168152602001908152602001600020549050919050565b610ba5611050565b610baf6000611499565b565b600b60009054906101000a900473ffffffffffffffffffffffffffffffffffffffff1681565b6000600660009054906101000a900473ffffffffffffffffffffffffffffffffffffffff16905090565b610c09611050565b8181600a9182610c1a929190612b1b565b505050565b606060018054610c2e906124b6565b80601f0160208091040260200160405190810160405280929190818152602001828054610c5a906124b6565b8015610ca75780601f10610c7c57610100808354040283529160200191610ca7565b820191906000526020600020905b815481529060010190602001808311610c8a57829003601f168201915b5050505050905090565b610cc3610cbc610f71565b838361155f565b5050565b610cd8610cd2610f71565b836110ce565b610d17576040517f08c379a0000000000000000000000000000000000000000000000000000000008152600401610d0e90612794565b60405180910390fd5b610d23848484846116cb565b50505050565b6060610d3482611727565b610d73576040517f08c379a0000000000000000000000000000000000000000000000000000000008152600401610d6a90612c37565b60405180910390fd5b600a610d7e83611768565b604051602001610d8f929190612d62565b6040516020818303038152906040529050919050565b6000600560008473ffffffffffffffffffffffffffffffffffffffff1673ffffffffffffffffffffffffffffffffffffffff16815260200190815260200160002060008373ffffffffffffffffffffffffffffffffffffffff1673ffffffffffffffffffffffffffffffffffffffff16815260200190815260200160002060009054906101000a900460ff16905092915050565b610e41611050565b600073ffffffffffffffffffffffffffffffffffffffff168173ffffffffffffffffffffffffffffffffffffffff1603610eb0576040517f08c379a0000000000000000000000000000000000000000000000000000000008152600401610ea790612e03565b60405180910390fd5b610eb981611499565b50565b60007f01ffc9a7000000000000000000000000000000000000000000000000000000007bffffffffffffffffffffffffffffffffffffffffffffffffffffffff1916827bffffffffffffffffffffffffffffffffffffffffffffffffffffffff1916149050919050565b610f2f81611727565b610f6e576040517f08c379a0000000000000000000000000000000000000000000000000000000008152600401610f65906128b2565b60405180910390fd5b50565b600033905090565b816004600083815260200190815260200160002060006101000a81548173ffffffffffffffffffffffffffffffffffffffff021916908373ffffffffffffffffffffffffffffffffffffffff160217905550808273ffffffffffffffffffffffffffffffffffffffff16610fec83610a5a565b73ffffffffffffffffffffffffffffffffffffffff167f8c5be1e5ebec7d5bd14f71427d1e84f3dd0314c0f7b2291e5b200ac8c7c3b92560405160405180910390a45050565b61104c828260405180602001604052806000815250611836565b5050565b611058610f71565b73ffffffffffffffffffffffffffffffffffffffff16611076610bd7565b73ffffffffffffffffffffffffffffffffffffffff16146110cc576040517f08c379a00000000000000000000000000000000000000000000000000000000081526004016110c390612e6f565b60405180910390fd5b565b6000806110da83610a5a565b90508073ffffffffffffffffffffffffffffffffffffffff168473ffffffffffffffffffffffffffffffffffffffff16148061111c575061111b8185610da5565b5b8061115a57508373ffffffffffffffffffffffffffffffffffffffff16611142846106f2565b73ffffffffffffffffffffffffffffffffffffffff16145b91505092915050565b8273ffffffffffffffffffffffffffffffffffffffff1661118382610a5a565b73ffffffffffffffffffffffffffffffffffffffff16146111d9576040517f08c379a00000000000000000000000000000000000000000000000000000000081526004016111d090612f01565b60405180910390fd5b600073ffffffffffffffffffffffffffffffffffffffff168273ffffffffffffffffffffffffffffffffffffffff1603611248576040517f08c379a000000000000000000000000000000000000000000000000000000000815260040161123f90612f93565b60405180910390fd5b6112558383836001611891565b8273ffffffffffffffffffffffffffffffffffffffff1661127582610a5a565b73ffffffffffffffffffffffffffffffffffffffff16146112cb576040517f08c379a00000000000000000000000000000000000000000000000000000000081526004016112c290612f01565b60405180910390fd5b6004600082815260200190815260200160002060006101000a81549073ffffffffffffffffffffffffffffffffffffffff02191690556001600360008573ffffffffffffffffffffffffffffffffffffffff1673ffffffffffffffffffffffffffffffffffffffff168152602001908152602001600020600082825403925050819055506001600360008473ffffffffffffffffffffffffffffffffffffffff1673ffffffffffffffffffffffffffffffffffffffff16815260200190815260200160002060008282540192505081905550816002600083815260200190815260200160002060006101000a81548173ffffffffffffffffffffffffffffffffffffffff021916908373ffffffffffffffffffffffffffffffffffffffff160217905550808273ffffffffffffffffffffffffffffffffffffffff168473ffffffffffffffffffffffffffffffffffffffff167fddf252ad1be2c89b69c2b068fc378daa952ba7f163c4a11628f55a4df523b3ef60405160405180910390a46114578383836001611897565b505050565b60006002600083815260200190815260200160002060009054906101000a900473ffffffffffffffffffffffffffffffffffffffff169050919050565b6000600660009054906101000a900473ffffffffffffffffffffffffffffffffffffffff16905081600660006101000a81548173ffffffffffffffffffffffffffffffffffffffff021916908373ffffffffffffffffffffffffffffffffffffffff1602179055508173ffffffffffffffffffffffffffffffffffffffff168173ffffffffffffffffffffffffffffffffffffffff167f8be0079c531659141344cd1fd0a4f28419497f9722a3daafe3b4186f6b6457e060405160405180910390a35050565b8173ffffffffffffffffffffffffffffffffffffffff168373ffffffffffffffffffffffffffffffffffffffff16036115cd576040517f08c379a00000000000000000000000000000000000000000000000000000000081526004016115c490612fff565b60405180910390fd5b80600560008573ffffffffffffffffffffffffffffffffffffffff1673ffffffffffffffffffffffffffffffffffffffff16815260200190815260200160002060008473ffffffffffffffffffffffffffffffffffffffff1673ffffffffffffffffffffffffffffffffffffffff16815260200190815260200160002060006101000a81548160ff0219169083151502179055508173ffffffffffffffffffffffffffffffffffffffff168373ffffffffffffffffffffffffffffffffffffffff167f17307eab39ab6107e8899845ad3d59bd9653f200f220920489ca2b5937696c31836040516116be9190611dd2565b60405180910390a3505050565b6116d6848484611163565b6116e28484848461189d565b611721576040517f08c379a000000000000000000000000000000000000000000000000000000000815260040161171890613091565b60405180910390fd5b50505050565b60008073ffffffffffffffffffffffffffffffffffffffff166117498361145c565b73ffffffffffffffffffffffffffffffffffffffff1614159050919050565b60606000600161177784611a24565b01905060008167ffffffffffffffff81111561179657611795612299565b5b6040519080825280601f01601f1916602001820160405280156117c85781602001600182028036833780820191505090505b509050600082602001820190505b60011561182b578080600190039150507f3031323334353637383961626364656600000000000000000000000000000000600a86061a8153600a858161181f5761181e6130b1565b5b049450600085036117d6575b819350505050919050565b6118408383611b77565b61184d600084848461189d565b61188c576040517f08c379a000000000000000000000000000000000000000000000000000000000815260040161188390613091565b60405180910390fd5b505050565b50505050565b50505050565b60006118be8473ffffffffffffffffffffffffffffffffffffffff16611d94565b15611a17578373ffffffffffffffffffffffffffffffffffffffff1663150b7a026118e7610f71565b8786866040518563ffffffff1660e01b81526004016119099493929190613135565b6020604051808303816000875af192505050801561194557506040513d601f19601f820116820180604052508101906119429190613196565b60015b6119c7573d8060008114611975576040519150601f19603f3d011682016040523d82523d6000602084013e61197a565b606091505b5060008151036119bf576040517f08c379a00000000000000000000000000000000000000000000000000000000081526004016119b690613091565b60405180910390fd5b805181602001fd5b63150b7a0260e01b7bffffffffffffffffffffffffffffffffffffffffffffffffffffffff1916817bffffffffffffffffffffffffffffffffffffffffffffffffffffffff191614915050611a1c565b600190505b949350505050565b600080600090507a184f03e93ff9f4daa797ed6e38ed64bf6a1f0100000000000000008310611a82577a184f03e93ff9f4daa797ed6e38ed64bf6a1f0100000000000000008381611a7857611a776130b1565b5b0492506040810190505b6d04ee2d6d415b85acef81000000008310611abf576d04ee2d6d415b85acef81000000008381611ab557611ab46130b1565b5b0492506020810190505b662386f26fc100008310611aee57662386f26fc100008381611ae457611ae36130b1565b5b0492506010810190505b6305f5e1008310611b17576305f5e1008381611b0d57611b0c6130b1565b5b0492506008810190505b6127108310611b3c576127108381611b3257611b316130b1565b5b0492506004810190505b60648310611b5f5760648381611b5557611b546130b1565b5b0492506002810190505b600a8310611b6e576001810190505b80915050919050565b600073ffffffffffffffffffffffffffffffffffffffff168273ffffffffffffffffffffffffffffffffffffffff1603611be6576040517f08c379a0000000000000000000000000000000000000000000000000000000008152600401611bdd9061320f565b60405180910390fd5b611bef81611727565b15611c2f576040517f08c379a0000000000000000000000000000000000000000000000000000000008152600401611c269061327b565b60405180910390fd5b611c3d600083836001611891565b611c4681611727565b15611c86576040517f08c379a0000000000000000000000000000000000000000000000000000000008152600401611c7d9061327b565b60405180910390fd5b6001600360008473ffffffffffffffffffffffffffffffffffffffff1673ffffffffffffffffffffffffffffffffffffffff16815260200190815260200160002060008282540192505081905550816002600083815260200190815260200160002060006101000a81548173ffffffffffffffffffffffffffffffffffffffff021916908373ffffffffffffffffffffffffffffffffffffffff160217905550808273ffffffffffffffffffffffffffffffffffffffff16600073ffffffffffffffffffffffffffffffffffffffff167fddf252ad1be2c89b69c2b068fc378daa952ba7f163c4a11628f55a4df523b3ef60405160405180910390a4611d90600083836001611897565b5050565b6000808273ffffffffffffffffffffffffffffffffffffffff163b119050919050565b60008115159050919050565b611dcc81611db7565b82525050565b6000602082019050611de76000830184611dc3565b92915050565b6000604051905090565b600080fd5b600080fd5b60007fffffffff0000000000000000000000000000000000000000000000000000000082169050919050565b611e3681611e01565b8114611e4157600080fd5b50565b600081359050611e5381611e2d565b92915050565b600060208284031215611e6f57611e6e611df7565b5b6000611e7d84828501611e44565b91505092915050565b600081519050919050565b600082825260208201905092915050565b60005b83811015611ec0578082015181840152602081019050611ea5565b60008484015250505050565b6000601f19601f8301169050919050565b6000611ee882611e86565b611ef28185611e91565b9350611f02818560208601611ea2565b611f0b81611ecc565b840191505092915050565b60006020820190508181036000830152611f308184611edd565b905092915050565b6000819050919050565b611f4b81611f38565b8114611f5657600080fd5b50565b600081359050611f6881611f42565b92915050565b600060208284031215611f8457611f83611df7565b5b6000611f9284828501611f59565b91505092915050565b600073ffffffffffffffffffffffffffffffffffffffff82169050919050565b6000611fc682611f9b565b9050919050565b611fd681611fbb565b82525050565b6000602082019050611ff16000830184611fcd565b92915050565b61200081611fbb565b811461200b57600080fd5b50565b60008135905061201d81611ff7565b92915050565b6000806040838503121561203a57612039611df7565b5b60006120488582860161200e565b925050602061205985828601611f59565b9150509250929050565b61206c81611f38565b82525050565b60006020820190506120876000830184612063565b92915050565b61209681611db7565b81146120a157600080fd5b50565b6000813590506120b38161208d565b92915050565b6000602082840312156120cf576120ce611df7565b5b60006120dd848285016120a4565b91505092915050565b6000806000606084860312156120ff576120fe611df7565b5b600061210d8682870161200e565b935050602061211e8682870161200e565b925050604061212f86828701611f59565b9150509250925092565b60006020828403121561214f5761214e611df7565b5b600061215d8482850161200e565b91505092915050565b600061217182611f9b565b9050919050565b61218181612166565b82525050565b600060208201905061219c6000830184612178565b92915050565b600080fd5b600080fd5b600080fd5b60008083601f8401126121c7576121c66121a2565b5b8235905067ffffffffffffffff8111156121e4576121e36121a7565b5b602083019150836001820283011115612200576121ff6121ac565b5b9250929050565b6000806020838503121561221e5761221d611df7565b5b600083013567ffffffffffffffff81111561223c5761223b611dfc565b5b612248858286016121b1565b92509250509250929050565b6000806040838503121561226b5761226a611df7565b5b60006122798582860161200e565b925050602061228a858286016120a4565b9150509250929050565b600080fd5b7f4e487b7100000000000000000000000000000000000000000000000000000000600052604160045260246000fd5b6122d182611ecc565b810181811067ffffffffffffffff821117156122f0576122ef612299565b5b80604052505050565b6000612303611ded565b905061230f82826122c8565b919050565b600067ffffffffffffffff82111561232f5761232e612299565b5b61233882611ecc565b9050602081019050919050565b82818337600083830152505050565b600061236761236284612314565b6122f9565b90508281526020810184848401111561238357612382612294565b5b61238e848285612345565b509392505050565b600082601f8301126123ab576123aa6121a2565b5b81356123bb848260208601612354565b91505092915050565b600080600080608085870312156123de576123dd611df7565b5b60006123ec8782880161200e565b94505060206123fd8782880161200e565b935050604061240e87828801611f59565b925050606085013567ffffffffffffffff81111561242f5761242e611dfc565b5b61243b87828801612396565b91505092959194509250565b6000806040838503121561245e5761245d611df7565b5b600061246c8582860161200e565b925050602061247d8582860161200e565b9150509250929050565b7f4e487b7100000000000000000000000000000000000000000000000000000000600052602260045260246000fd5b600060028204905060018216806124ce57607f821691505b6020821081036124e1576124e0612487565b5b50919050565b7f4552433732313a20617070726f76616c20746f2063757272656e74206f776e6560008201527f7200000000000000000000000000000000000000000000000000000000000000602082015250565b6000612543602183611e91565b915061254e826124e7565b604082019050919050565b6000602082019050818103600083015261257281612536565b9050919050565b7f4552433732313a20617070726f76652063616c6c6572206973206e6f7420746f60008201527f6b656e206f776e6572206f7220617070726f76656420666f7220616c6c000000602082015250565b60006125d5603d83611e91565b91506125e082612579565b604082019050919050565b60006020820190508181036000830152612604816125c8565b9050919050565b7f4d696e74696e67206e6f7420656e61626c656421000000000000000000000000600082015250565b6000612641601483611e91565b915061264c8261260b565b602082019050919050565b6000602082019050818103600083015261267081612634565b9050919050565b7f4e487b7100000000000000000000000000000000000000000000000000000000600052601160045260246000fd5b60006126b182611f38565b91506126bc83611f38565b92508282019050808211156126d4576126d3612677565b5b92915050565b60006126e582611f38565b91507fffffffffffffffffffffffffffffffffffffffffffffffffffffffffffffffff820361271757612716612677565b5b600182019050919050565b7f4552433732313a2063616c6c6572206973206e6f7420746f6b656e206f776e6560008201527f72206f7220617070726f76656400000000000000000000000000000000000000602082015250565b600061277e602d83611e91565b915061278982612722565b604082019050919050565b600060208201905081810360008301526127ad81612771565b9050919050565b600081905092915050565b50565b60006127cf6000836127b4565b91506127da826127bf565b600082019050919050565b60006127f0826127c2565b9150819050919050565b7f5769746864726177206661696c65642100000000000000000000000000000000600082015250565b6000612830601083611e91565b915061283b826127fa565b602082019050919050565b6000602082019050818103600083015261285f81612823565b9050919050565b7f4552433732313a20696e76616c696420746f6b656e2049440000000000000000600082015250565b600061289c601883611e91565b91506128a782612866565b602082019050919050565b600060208201905081810360008301526128cb8161288f565b9050919050565b7f4552433732313a2061646472657373207a65726f206973206e6f74206120766160008201527f6c6964206f776e65720000000000000000000000000000000000000000000000602082015250565b600061292e602983611e91565b9150612939826128d2565b604082019050919050565b6000602082019050818103600083015261295d81612921565b9050919050565b600082905092915050565b60008190508160005260206000209050919050565b60006020601f8301049050919050565b600082821b905092915050565b6000600883026129d17fffffffffffffffffffffffffffffffffffffffffffffffffffffffffffffffff82612994565b6129db8683612994565b95508019841693508086168417925050509392505050565b6000819050919050565b6000612a18612a13612a0e84611f38565b6129f3565b611f38565b9050919050565b6000819050919050565b612a32836129fd565b612a46612a3e82612a1f565b8484546129a1565b825550505050565b600090565b612a5b612a4e565b612a66818484612a29565b505050565b5b81811015612a8a57612a7f600082612a53565b600181019050612a6c565b5050565b601f821115612acf57612aa08161296f565b612aa984612984565b81016020851015612ab8578190505b612acc612ac485612984565b830182612a6b565b50505b505050565b600082821c905092915050565b6000612af260001984600802612ad4565b1980831691505092915050565b6000612b0b8383612ae1565b9150826002028217905092915050565b612b258383612964565b67ffffffffffffffff811115612b3e57612b3d612299565b5b612b4882546124b6565b612b53828285612a8e565b6000601f831160018114612b825760008415612b70578287013590505b612b7a8582612aff565b865550612be2565b601f198416612b908661296f565b60005b82811015612bb857848901358255600182019150602085019450602081019050612b93565b86831015612bd55784890135612bd1601f891682612ae1565b8355505b6001600288020188555050505b50505050505050565b7f546f6b656e20646f6573206e6f74206578697374210000000000000000000000600082015250565b6000612c21601583611e91565b9150612c2c82612beb565b602082019050919050565b60006020820190508181036000830152612c5081612c14565b9050919050565b600081905092915050565b60008154612c6f816124b6565b612c798186612c57565b94506001821660008114612c945760018114612ca957612cdc565b60ff1983168652811515820286019350612cdc565b612cb28561296f565b60005b83811015612cd457815481890152600182019150602081019050612cb5565b838801955050505b50505092915050565b6000612cf082611e86565b612cfa8185612c57565b9350612d0a818560208601611ea2565b80840191505092915050565b7f2e6a736f6e3f616c743d6d656469610000000000000000000000000000000000600082015250565b6000612d4c600f83612c57565b9150612d5782612d16565b600f82019050919050565b6000612d6e8285612c62565b9150612d7a8284612ce5565b9150612d8582612d3f565b91508190509392505050565b7f4f776e61626c653a206e6577206f776e657220697320746865207a65726f206160008201527f6464726573730000000000000000000000000000000000000000000000000000602082015250565b6000612ded602683611e91565b9150612df882612d91565b604082019050919050565b60006020820190508181036000830152612e1c81612de0565b9050919050565b7f4f776e61626c653a2063616c6c6572206973206e6f7420746865206f776e6572600082015250565b6000612e59602083611e91565b9150612e6482612e23565b602082019050919050565b60006020820190508181036000830152612e8881612e4c565b9050919050565b7f4552433732313a207472616e736665722066726f6d20696e636f72726563742060008201527f6f776e6572000000000000000000000000000000000000000000000000000000602082015250565b6000612eeb602583611e91565b9150612ef682612e8f565b604082019050919050565b60006020820190508181036000830152612f1a81612ede565b9050919050565b7f4552433732313a207472616e7366657220746f20746865207a65726f2061646460008201527f7265737300000000000000000000000000000000000000000000000000000000602082015250565b6000612f7d602483611e91565b9150612f8882612f21565b604082019050919050565b60006020820190508181036000830152612fac81612f70565b9050919050565b7f4552433732313a20617070726f766520746f2063616c6c657200000000000000600082015250565b6000612fe9601983611e91565b9150612ff482612fb3565b602082019050919050565b6000602082019050818103600083015261301881612fdc565b9050919050565b7f4552433732313a207472616e7366657220746f206e6f6e20455243373231526560008201527f63656976657220696d706c656d656e7465720000000000000000000000000000602082015250565b600061307b603283611e91565b91506130868261301f565b604082019050919050565b600060208201905081810360008301526130aa8161306e565b9050919050565b7f4e487b7100000000000000000000000000000000000000000000000000000000600052601260045260246000fd5b600081519050919050565b600082825260208201905092915050565b6000613107826130e0565b61311181856130eb565b9350613121818560208601611ea2565b61312a81611ecc565b840191505092915050565b600060808201905061314a6000830187611fcd565b6131576020830186611fcd565b6131646040830185612063565b818103606083015261317681846130fc565b905095945050505050565b60008151905061319081611e2d565b92915050565b6000602082840312156131ac576131ab611df7565b5b60006131ba84828501613181565b91505092915050565b7f4552433732313a206d696e7420746f20746865207a65726f2061646472657373600082015250565b60006131f9602083611e91565b9150613204826131c3565b602082019050919050565b60006020820190508181036000830152613228816131ec565b9050919050565b7f4552433732313a20746f6b656e20616c7265616479206d696e74656400000000600082015250565b6000613265601c83611e91565b91506132708261322f565b602082019050919050565b6000602082019050818103600083015261329481613258565b905091905056fea264697066735822122011a77df084331364def247c74e1db74961429f5f80df909bfffcf8049b4d6d4764736f6c63430008140033",
  "linkReferences": {},
  "deployedLinkReferences": {}
}