{
  "_format": "hh-sol-artifact-1",
  "contractName": "PassNFT",
  "sourceName": "contracts/PassNFT.sol",
  "abi": [
    {
      "inputs": [
        {
          "internalType": "string",
          "name": "_tokenUri",
          "type": "string"
        }
      ],
      "stateMutability": "payable",
      "type": "constructor"
    },
    {
      "anonymous": false,
      "inputs": [
        {
          "indexed": true,
          "internalType": "address",
          "name": "owner",
          "type": "address"
        },
        {
          "indexed": true,
          "internalType": "address",
          "name": "approved",
          "type": "address"
        },
        {
          "indexed": true,
          "internalType": "uint256",
          "name": "tokenId",
          "type": "uint256"
        }
      ],
      "name": "Approval",
      "type": "event"
    },
    {
      "anonymous": false,
      "inputs": [
        {
          "indexed": true,
          "internalType": "address",
          "name": "owner",
          "type": "address"
        },
        {
          "indexed": true,
          "internalType": "address",
          "name": "operator",
          "type": "address"
        },
        {
          "indexed": false,
          "internalType": "bool",
          "name": "approved",
          "type": "bool"
        }
      ],
      "name": "ApprovalForAll",
      "type": "event"
    },
    {
      "anonymous": false,
      "inputs": [
        {
          "indexed": true,
          "internalType": "address",
          "name": "previousOwner",
          "type": "address"
        },
        {
          "indexed": true,
          "internalType": "address",
          "name": "newOwner",
          "type": "address"
        }
      ],
      "name": "OwnershipTransferred",
      "type": "event"
    },
    {
      "anonymous": false,
      "inputs": [
        {
          "indexed": true,
          "internalType": "address",
          "name": "from",
          "type": "address"
        },
        {
          "indexed": true,
          "internalType": "address",
          "name": "to",
          "type": "address"
        },
        {
          "indexed": true,
          "internalType": "uint256",
          "name": "tokenId",
          "type": "uint256"
        }
      ],
      "name": "Transfer",
      "type": "event"
    },
    {
      "inputs": [
        {
          "internalType": "address",
          "name": "to",
          "type": "address"
        },
        {
          "internalType": "uint256",
          "name": "tokenId",
          "type": "uint256"
        }
      ],
      "name": "approve",
      "outputs": [],
      "stateMutability": "nonpayable",
      "type": "function"
    },
    {
      "inputs": [
        {
          "internalType": "address",
          "name": "owner",
          "type": "address"
        }
      ],
      "name": "balanceOf",
      "outputs": [
        {
          "internalType": "uint256",
          "name": "",
          "type": "uint256"
        }
      ],
      "stateMutability": "view",
      "type": "function"
    },
    {
      "inputs": [
        {
          "internalType": "uint256",
          "name": "tokenId",
          "type": "uint256"
        }
      ],
      "name": "getApproved",
      "outputs": [
        {
          "internalType": "address",
          "name": "",
          "type": "address"
        }
      ],
      "stateMutability": "view",
      "type": "function"
    },
    {
      "inputs": [
        {
          "internalType": "address",
          "name": "owner",
          "type": "address"
        },
        {
          "internalType": "address",
          "name": "operator",
          "type": "address"
        }
      ],
      "name": "isApprovedForAll",
      "outputs": [
        {
          "internalType": "bool",
          "name": "",
          "type": "bool"
        }
      ],
      "stateMutability": "view",
      "type": "function"
    },
    {
      "inputs": [],
      "name": "isPublicMintEnabled",
      "outputs": [
        {
          "internalType": "bool",
          "name": "",
          "type": "bool"
        }
      ],
      "stateMutability": "view",
      "type": "function"
    },
    {
      "inputs": [],
      "name": "maxPerWallet",
      "outputs": [
        {
          "internalType": "uint256",
          "name": "",
          "type": "uint256"
        }
      ],
      "stateMutability": "view",
      "type": "function"
    },
    {
      "inputs": [],
      "name": "maxSupply",
      "outputs": [
        {
          "internalType": "uint256",
          "name": "",
          "type": "uint256"
        }
      ],
      "stateMutability": "view",
      "type": "function"
    },
    {
      "inputs": [
        {
          "internalType": "uint256",
          "name": "mintAmount",
          "type": "uint256"
        }
      ],
      "name": "mint",
      "outputs": [],
      "stateMutability": "payable",
      "type": "function"
    },
    {
      "inputs": [],
      "name": "mintPrice",
      "outputs": [
        {
          "internalType": "uint256",
          "name": "",
          "type": "uint256"
        }
      ],
      "stateMutability": "view",
      "type": "function"
    },
    {
      "inputs": [],
      "name": "name",
      "outputs": [
        {
          "internalType": "string",
          "name": "",
          "type": "string"
        }
      ],
      "stateMutability": "view",
      "type": "function"
    },
    {
      "inputs": [],
      "name": "owner",
      "outputs": [
        {
          "internalType": "address",
          "name": "",
          "type": "address"
        }
      ],
      "stateMutability": "view",
      "type": "function"
    },
    {
      "inputs": [
        {
          "internalType": "uint256",
          "name": "tokenId",
          "type": "uint256"
        }
      ],
      "name": "ownerOf",
      "outputs": [
        {
          "internalType": "address",
          "name": "",
          "type": "address"
        }
      ],
      "stateMutability": "view",
      "type": "function"
    },
    {
      "inputs": [],
      "name": "renounceOwnership",
      "outputs": [],
      "stateMutability": "nonpayable",
      "type": "function"
    },
    {
      "inputs": [
        {
          "internalType": "address",
          "name": "from",
          "type": "address"
        },
        {
          "internalType": "address",
          "name": "to",
          "type": "address"
        },
        {
          "internalType": "uint256",
          "name": "tokenId",
          "type": "uint256"
        }
      ],
      "name": "safeTransferFrom",
      "outputs": [],
      "stateMutability": "nonpayable",
      "type": "function"
    },
    {
      "inputs": [
        {
          "internalType": "address",
          "name": "from",
          "type": "address"
        },
        {
          "internalType": "address",
          "name": "to",
          "type": "address"
        },
        {
          "internalType": "uint256",
          "name": "tokenId",
          "type": "uint256"
        },
        {
          "internalType": "bytes",
          "name": "data",
          "type": "bytes"
        }
      ],
      "name": "safeTransferFrom",
      "outputs": [],
      "stateMutability": "nonpayable",
      "type": "function"
    },
    {
      "inputs": [
        {
          "internalType": "address",
          "name": "operator",
          "type": "address"
        },
        {
          "internalType": "bool",
          "name": "approved",
          "type": "bool"
        }
      ],
      "name": "setApprovalForAll",
      "outputs": [],
      "stateMutability": "nonpayable",
      "type": "function"
    },
    {
      "inputs": [
        {
          "internalType": "string",
          "name": "newBaseTokenUri",
          "type": "string"
        }
      ],
      "name": "setBaseTokenUri",
      "outputs": [],
      "stateMutability": "nonpayable",
      "type": "function"
    },
    {
      "inputs": [
        {
          "internalType": "bool",
          "name": "newPublicMintStatus",
          "type": "bool"
        }
      ],
      "name": "setIsPublicMintEnabled",
      "outputs": [],
      "stateMutability": "nonpayable",
      "type": "function"
    },
    {
      "inputs": [
        {
          "internalType": "bytes4",
          "name": "interfaceId",
          "type": "bytes4"
        }
      ],
      "name": "supportsInterface",
      "outputs": [
        {
          "internalType": "bool",
          "name": "",
          "type": "bool"
        }
      ],
      "stateMutability": "view",
      "type": "function"
    },
    {
      "inputs": [],
      "name": "symbol",
      "outputs": [
        {
          "internalType": "string",
          "name": "",
          "type": "string"
        }
      ],
      "stateMutability": "view",
      "type": "function"
    },
    {
      "inputs": [
        {
          "internalType": "uint256",
          "name": "tokenId",
          "type": "uint256"
        }
      ],
      "name": "tokenURI",
      "outputs": [
        {
          "internalType": "string",
          "name": "",
          "type": "string"
        }
      ],
      "stateMutability": "view",
      "type": "function"
    },
    {
      "inputs": [],
      "name": "totalSupply",
      "outputs": [
        {
          "internalType": "uint256",
          "name": "",
          "type": "uint256"
        }
      ],
      "stateMutability": "view",
      "type": "function"
    },
    {
      "inputs": [
        {
          "internalType": "address",
          "name": "from",
          "type": "address"
        },
        {
          "internalType": "address",
          "name": "to",
          "type": "address"
        },
        {
          "internalType": "uint256",
          "name": "tokenId",
          "type": "uint256"
        }
      ],
      "name": "transferFrom",
      "outputs": [],
      "stateMutability": "nonpayable",
      "type": "function"
    },
    {
      "inputs": [
        {
          "internalType": "address",
          "name": "newOwner",
          "type": "address"
        }
      ],
      "name": "transferOwnership",
      "outputs": [],
      "stateMutability": "nonpayable",
      "type": "function"
    },
    {
      "inputs": [
        {
          "internalType": "address",
          "name": "",
          "type": "address"
        }
      ],
      "name": "walletMints",
      "outputs": [
        {
          "internalType": "uint256",
          "name": "",
          "type": "uint256"
        }
      ],
      "stateMutability": "view",
      "type": "function"
    },
    {
      "inputs": [],
      "name": "withdraw",
      "outputs": [],
      "stateMutability": "nonpayable",
      "type": "function"
    },
    {
      "inputs": [],
      "name": "withdrawWallet",
      "outputs": [
        {
          "internalType": "address payable",
          "name": "",
          "type": "address"
        }
      ],
      "stateMutability": "view",
      "type": "function"
    }
  ],
  "bytecode": "0x608060405260405162003b5338038062003b53833981810160405281019062000029919062000397565b6040518060400160405280600f81526020017f4d696e7465722050617373204e465400000000000000000000000000000000008152506040518060400160405280600281526020017f4d500000000000000000000000000000000000000000000000000000000000008152508160009081620000a6919062000633565b508060019081620000b8919062000633565b505050620000db620000cf6200013660201b60201c565b6200013e60201b60201c565b662386f26fc1000060078190555060006008819055506127106009819055506001600a8190555080600c908162000113919062000633565b506000600b60006101000a81548160ff021916908315150217905550506200071a565b600033905090565b6000600660009054906101000a900473ffffffffffffffffffffffffffffffffffffffff16905081600660006101000a81548173ffffffffffffffffffffffffffffffffffffffff021916908373ffffffffffffffffffffffffffffffffffffffff1602179055508173ffffffffffffffffffffffffffffffffffffffff168173ffffffffffffffffffffffffffffffffffffffff167f8be0079c531659141344cd1fd0a4f28419497f9722a3daafe3b4186f6b6457e060405160405180910390a35050565b6000604051905090565b600080fd5b600080fd5b600080fd5b600080fd5b6000601f19601f8301169050919050565b7f4e487b7100000000000000000000000000000000000000000000000000000000600052604160045260246000fd5b6200026d8262000222565b810181811067ffffffffffffffff821117156200028f576200028e62000233565b5b80604052505050565b6000620002a462000204565b9050620002b2828262000262565b919050565b600067ffffffffffffffff821115620002d557620002d462000233565b5b620002e08262000222565b9050602081019050919050565b60005b838110156200030d578082015181840152602081019050620002f0565b60008484015250505050565b6000620003306200032a84620002b7565b62000298565b9050828152602081018484840111156200034f576200034e6200021d565b5b6200035c848285620002ed565b509392505050565b600082601f8301126200037c576200037b62000218565b5b81516200038e84826020860162000319565b91505092915050565b600060208284031215620003b057620003af6200020e565b5b600082015167ffffffffffffffff811115620003d157620003d062000213565b5b620003df8482850162000364565b91505092915050565b600081519050919050565b7f4e487b7100000000000000000000000000000000000000000000000000000000600052602260045260246000fd5b600060028204905060018216806200043b57607f821691505b602082108103620004515762000450620003f3565b5b50919050565b60008190508160005260206000209050919050565b60006020601f8301049050919050565b600082821b905092915050565b600060088302620004bb7fffffffffffffffffffffffffffffffffffffffffffffffffffffffffffffffff826200047c565b620004c786836200047c565b95508019841693508086168417925050509392505050565b6000819050919050565b6000819050919050565b6000620005146200050e6200050884620004df565b620004e9565b620004df565b9050919050565b6000819050919050565b6200053083620004f3565b620005486200053f826200051b565b84845462000489565b825550505050565b600090565b6200055f62000550565b6200056c81848462000525565b505050565b5b8181101562000594576200058860008262000555565b60018101905062000572565b5050565b601f821115620005e357620005ad8162000457565b620005b8846200046c565b81016020851015620005c8578190505b620005e0620005d7856200046c565b83018262000571565b50505b505050565b600082821c905092915050565b60006200060860001984600802620005e8565b1980831691505092915050565b6000620006238383620005f5565b9150826002028217905092915050565b6200063e82620003e8565b67ffffffffffffffff8111156200065a576200065962000233565b5b62000666825462000422565b6200067382828562000598565b600060209050601f831160018114620006ab576000841562000696578287015190505b620006a2858262000615565b86555062000712565b601f198416620006bb8662000457565b60005b82811015620006e557848901518255600182019150602085019450602081019050620006be565b8683101562000705578489015162000701601f891682620005f5565b8355505b6001600288020188555050505b505050505050565b613429806200072a6000396000f3fe60806040526004361061019c5760003560e01c806370a08231116100ec578063a22cb4651161008a578063d5abeb0111610064578063d5abeb0114610593578063e985e9c5146105be578063f0293fd3146105fb578063f2fde38b146106385761019c565b8063a22cb46514610504578063b88d4fde1461052d578063c87b56dd146105565761019c565b80638da5cb5b116100c65780638da5cb5b1461046957806395652cfa1461049457806395d89b41146104bd578063a0712d68146104e85761019c565b806370a08231146103ea578063715018a61461042757806385d178f41461043e5761019c565b80632373ac221161015957806342842e0e1161013357806342842e0e1461032e578063453c2310146103575780636352211e146103825780636817c76c146103bf5761019c565b80632373ac22146102c557806323b872dd146102ee5780633ccfd60b146103175761019c565b80630116bc2d146101a157806301ffc9a7146101cc57806306fdde0314610209578063081812fc14610234578063095ea7b31461027157806318160ddd1461029a575b600080fd5b3480156101ad57600080fd5b506101b6610661565b6040516101c39190611e11565b60405180910390f35b3480156101d857600080fd5b506101f360048036038101906101ee9190611e98565b610674565b6040516102009190611e11565b60405180910390f35b34801561021557600080fd5b5061021e610756565b60405161022b9190611f55565b60405180910390f35b34801561024057600080fd5b5061025b60048036038101906102569190611fad565b6107e8565b604051610268919061201b565b60405180910390f35b34801561027d57600080fd5b5061029860048036038101906102939190612062565b61082e565b005b3480156102a657600080fd5b506102af610945565b6040516102bc91906120b1565b60405180910390f35b3480156102d157600080fd5b506102ec60048036038101906102e791906120f8565b61094b565b005b3480156102fa57600080fd5b5061031560048036038101906103109190612125565b610970565b005b34801561032357600080fd5b5061032c6109d0565b005b34801561033a57600080fd5b5061035560048036038101906103509190612125565b610aa9565b005b34801561036357600080fd5b5061036c610ac9565b60405161037991906120b1565b60405180910390f35b34801561038e57600080fd5b506103a960048036038101906103a49190611fad565b610acf565b6040516103b6919061201b565b60405180910390f35b3480156103cb57600080fd5b506103d4610b55565b6040516103e191906120b1565b60405180910390f35b3480156103f657600080fd5b50610411600480360381019061040c9190612178565b610b5b565b60405161041e91906120b1565b60405180910390f35b34801561043357600080fd5b5061043c610c12565b005b34801561044a57600080fd5b50610453610c26565b60405161046091906121c6565b60405180910390f35b34801561047557600080fd5b5061047e610c4c565b60405161048b919061201b565b60405180910390f35b3480156104a057600080fd5b506104bb60048036038101906104b69190612246565b610c76565b005b3480156104c957600080fd5b506104d2610c94565b6040516104df9190611f55565b60405180910390f35b61050260048036038101906104fd9190611fad565b610d26565b005b34801561051057600080fd5b5061052b60048036038101906105269190612293565b610efd565b005b34801561053957600080fd5b50610554600480360381019061054f9190612403565b610f13565b005b34801561056257600080fd5b5061057d60048036038101906105789190611fad565b610f75565b60405161058a9190611f55565b60405180910390f35b34801561059f57600080fd5b506105a8610fe7565b6040516105b591906120b1565b60405180910390f35b3480156105ca57600080fd5b506105e560048036038101906105e09190612486565b610fed565b6040516105f29190611e11565b60405180910390f35b34801561060757600080fd5b50610622600480360381019061061d9190612178565b611081565b60405161062f91906120b1565b60405180910390f35b34801561064457600080fd5b5061065f600480360381019061065a9190612178565b611099565b005b600b60009054906101000a900460ff1681565b60007f80ac58cd000000000000000000000000000000000000000000000000000000007bffffffffffffffffffffffffffffffffffffffffffffffffffffffff1916827bffffffffffffffffffffffffffffffffffffffffffffffffffffffff1916148061073f57507f5b5e139f000000000000000000000000000000000000000000000000000000007bffffffffffffffffffffffffffffffffffffffffffffffffffffffff1916827bffffffffffffffffffffffffffffffffffffffffffffffffffffffff1916145b8061074f575061074e8261111c565b5b9050919050565b606060008054610765906124f5565b80601f0160208091040260200160405190810160405280929190818152602001828054610791906124f5565b80156107de5780601f106107b3576101008083540402835291602001916107de565b820191906000526020600020905b8154815290600101906020018083116107c157829003601f168201915b5050505050905090565b60006107f382611186565b6004600083815260200190815260200160002060009054906101000a900473ffffffffffffffffffffffffffffffffffffffff169050919050565b600061083982610acf565b90508073ffffffffffffffffffffffffffffffffffffffff168373ffffffffffffffffffffffffffffffffffffffff16036108a9576040517f08c379a00000000000000000000000000000000000000000000000000000000081526004016108a090612598565b60405180910390fd5b8073ffffffffffffffffffffffffffffffffffffffff166108c86111d1565b73ffffffffffffffffffffffffffffffffffffffff1614806108f757506108f6816108f16111d1565b610fed565b5b610936576040517f08c379a000000000000000000000000000000000000000000000000000000000815260040161092d9061262a565b60405180910390fd5b61094083836111d9565b505050565b60085481565b610953611292565b80600b60006101000a81548160ff02191690831515021790555050565b61098161097b6111d1565b82611310565b6109c0576040517f08c379a00000000000000000000000000000000000000000000000000000000081526004016109b7906126bc565b60405180910390fd5b6109cb8383836113a5565b505050565b6109d8611292565b6000600d60009054906101000a900473ffffffffffffffffffffffffffffffffffffffff1673ffffffffffffffffffffffffffffffffffffffff1647604051610a209061270d565b60006040518083038185875af1925050503d8060008114610a5d576040519150601f19603f3d011682016040523d82523d6000602084013e610a62565b606091505b5050905080610aa6576040517f08c379a0000000000000000000000000000000000000000000000000000000008152600401610a9d9061276e565b60405180910390fd5b50565b610ac483838360405180602001604052806000815250610f13565b505050565b600a5481565b600080610adb8361169e565b9050600073ffffffffffffffffffffffffffffffffffffffff168173ffffffffffffffffffffffffffffffffffffffff1603610b4c576040517f08c379a0000000000000000000000000000000000000000000000000000000008152600401610b43906127da565b60405180910390fd5b80915050919050565b60075481565b60008073ffffffffffffffffffffffffffffffffffffffff168273ffffffffffffffffffffffffffffffffffffffff1603610bcb576040517f08c379a0000000000000000000000000000000000000000000000000000000008152600401610bc29061286c565b60405180910390fd5b600360008373ffffffffffffffffffffffffffffffffffffffff1673ffffffffffffffffffffffffffffffffffffffff168152602001908152602001600020549050919050565b610c1a611292565b610c2460006116db565b565b600d60009054906101000a900473ffffffffffffffffffffffffffffffffffffffff1681565b6000600660009054906101000a900473ffffffffffffffffffffffffffffffffffffffff16905090565b610c7e611292565b8181600c9182610c8f929190612a43565b505050565b606060018054610ca3906124f5565b80601f0160208091040260200160405190810160405280929190818152602001828054610ccf906124f5565b8015610d1c5780601f10610cf157610100808354040283529160200191610d1c565b820191906000526020600020905b815481529060010190602001808311610cff57829003601f168201915b5050505050905090565b600b60009054906101000a900460ff16610d75576040517f08c379a0000000000000000000000000000000000000000000000000000000008152600401610d6c90612b5f565b60405180910390fd5b60075481610d839190612bae565b3414610dc4576040517f08c379a0000000000000000000000000000000000000000000000000000000008152600401610dbb90612c3c565b60405180910390fd5b60095481600854610dd59190612c5c565b1115610e16576040517f08c379a0000000000000000000000000000000000000000000000000000000008152600401610e0d90612cdc565b60405180910390fd5b600a5481600e60003373ffffffffffffffffffffffffffffffffffffffff1673ffffffffffffffffffffffffffffffffffffffff16815260200190815260200160002054610e649190612c5c565b1115610ea5576040517f08c379a0000000000000000000000000000000000000000000000000000000008152600401610e9c90612d48565b60405180910390fd5b60005b81811015610ef95760006001600854610ec19190612c5c565b9050610ecd33826117a1565b60086000815480929190610ee090612d68565b9190505550508080610ef190612d68565b915050610ea8565b5050565b610f0f610f086111d1565b83836117bf565b5050565b610f24610f1e6111d1565b83611310565b610f63576040517f08c379a0000000000000000000000000000000000000000000000000000000008152600401610f5a906126bc565b60405180910390fd5b610f6f8484848461192b565b50505050565b6060610f8082611987565b610fbf576040517f08c379a0000000000000000000000000000000000000000000000000000000008152600401610fb690612dfc565b60405180910390fd5b600c604051602001610fd19190612ef6565b6040516020818303038152906040529050919050565b60095481565b6000600560008473ffffffffffffffffffffffffffffffffffffffff1673ffffffffffffffffffffffffffffffffffffffff16815260200190815260200160002060008373ffffffffffffffffffffffffffffffffffffffff1673ffffffffffffffffffffffffffffffffffffffff16815260200190815260200160002060009054906101000a900460ff16905092915050565b600e6020528060005260406000206000915090505481565b6110a1611292565b600073ffffffffffffffffffffffffffffffffffffffff168173ffffffffffffffffffffffffffffffffffffffff1603611110576040517f08c379a000000000000000000000000000000000000000000000000000000000815260040161110790612f8a565b60405180910390fd5b611119816116db565b50565b60007f01ffc9a7000000000000000000000000000000000000000000000000000000007bffffffffffffffffffffffffffffffffffffffffffffffffffffffff1916827bffffffffffffffffffffffffffffffffffffffffffffffffffffffff1916149050919050565b61118f81611987565b6111ce576040517f08c379a00000000000000000000000000000000000000000000000000000000081526004016111c5906127da565b60405180910390fd5b50565b600033905090565b816004600083815260200190815260200160002060006101000a81548173ffffffffffffffffffffffffffffffffffffffff021916908373ffffffffffffffffffffffffffffffffffffffff160217905550808273ffffffffffffffffffffffffffffffffffffffff1661124c83610acf565b73ffffffffffffffffffffffffffffffffffffffff167f8c5be1e5ebec7d5bd14f71427d1e84f3dd0314c0f7b2291e5b200ac8c7c3b92560405160405180910390a45050565b61129a6111d1565b73ffffffffffffffffffffffffffffffffffffffff166112b8610c4c565b73ffffffffffffffffffffffffffffffffffffffff161461130e576040517f08c379a000000000000000000000000000000000000000000000000000000000815260040161130590612ff6565b60405180910390fd5b565b60008061131c83610acf565b90508073ffffffffffffffffffffffffffffffffffffffff168473ffffffffffffffffffffffffffffffffffffffff16148061135e575061135d8185610fed565b5b8061139c57508373ffffffffffffffffffffffffffffffffffffffff16611384846107e8565b73ffffffffffffffffffffffffffffffffffffffff16145b91505092915050565b8273ffffffffffffffffffffffffffffffffffffffff166113c582610acf565b73ffffffffffffffffffffffffffffffffffffffff161461141b576040517f08c379a000000000000000000000000000000000000000000000000000000000815260040161141290613088565b60405180910390fd5b600073ffffffffffffffffffffffffffffffffffffffff168273ffffffffffffffffffffffffffffffffffffffff160361148a576040517f08c379a00000000000000000000000000000000000000000000000000000000081526004016114819061311a565b60405180910390fd5b61149783838360016119c8565b8273ffffffffffffffffffffffffffffffffffffffff166114b782610acf565b73ffffffffffffffffffffffffffffffffffffffff161461150d576040517f08c379a000000000000000000000000000000000000000000000000000000000815260040161150490613088565b60405180910390fd5b6004600082815260200190815260200160002060006101000a81549073ffffffffffffffffffffffffffffffffffffffff02191690556001600360008573ffffffffffffffffffffffffffffffffffffffff1673ffffffffffffffffffffffffffffffffffffffff168152602001908152602001600020600082825403925050819055506001600360008473ffffffffffffffffffffffffffffffffffffffff1673ffffffffffffffffffffffffffffffffffffffff16815260200190815260200160002060008282540192505081905550816002600083815260200190815260200160002060006101000a81548173ffffffffffffffffffffffffffffffffffffffff021916908373ffffffffffffffffffffffffffffffffffffffff160217905550808273ffffffffffffffffffffffffffffffffffffffff168473ffffffffffffffffffffffffffffffffffffffff167fddf252ad1be2c89b69c2b068fc378daa952ba7f163c4a11628f55a4df523b3ef60405160405180910390a461169983838360016119ce565b505050565b60006002600083815260200190815260200160002060009054906101000a900473ffffffffffffffffffffffffffffffffffffffff169050919050565b6000600660009054906101000a900473ffffffffffffffffffffffffffffffffffffffff16905081600660006101000a81548173ffffffffffffffffffffffffffffffffffffffff021916908373ffffffffffffffffffffffffffffffffffffffff1602179055508173ffffffffffffffffffffffffffffffffffffffff168173ffffffffffffffffffffffffffffffffffffffff167f8be0079c531659141344cd1fd0a4f28419497f9722a3daafe3b4186f6b6457e060405160405180910390a35050565b6117bb8282604051806020016040528060008152506119d4565b5050565b8173ffffffffffffffffffffffffffffffffffffffff168373ffffffffffffffffffffffffffffffffffffffff160361182d576040517f08c379a000000000000000000000000000000000000000000000000000000000815260040161182490613186565b60405180910390fd5b80600560008573ffffffffffffffffffffffffffffffffffffffff1673ffffffffffffffffffffffffffffffffffffffff16815260200190815260200160002060008473ffffffffffffffffffffffffffffffffffffffff1673ffffffffffffffffffffffffffffffffffffffff16815260200190815260200160002060006101000a81548160ff0219169083151502179055508173ffffffffffffffffffffffffffffffffffffffff168373ffffffffffffffffffffffffffffffffffffffff167f17307eab39ab6107e8899845ad3d59bd9653f200f220920489ca2b5937696c318360405161191e9190611e11565b60405180910390a3505050565b6119368484846113a5565b61194284848484611a2f565b611981576040517f08c379a000000000000000000000000000000000000000000000000000000000815260040161197890613218565b60405180910390fd5b50505050565b60008073ffffffffffffffffffffffffffffffffffffffff166119a98361169e565b73ffffffffffffffffffffffffffffffffffffffff1614159050919050565b50505050565b50505050565b6119de8383611bb6565b6119eb6000848484611a2f565b611a2a576040517f08c379a0000000000000000000000000000000000000000000000000000000008152600401611a2190613218565b60405180910390fd5b505050565b6000611a508473ffffffffffffffffffffffffffffffffffffffff16611dd3565b15611ba9578373ffffffffffffffffffffffffffffffffffffffff1663150b7a02611a796111d1565b8786866040518563ffffffff1660e01b8152600401611a9b949392919061328d565b6020604051808303816000875af1925050508015611ad757506040513d601f19601f82011682018060405250810190611ad491906132ee565b60015b611b59573d8060008114611b07576040519150601f19603f3d011682016040523d82523d6000602084013e611b0c565b606091505b506000815103611b51576040517f08c379a0000000000000000000000000000000000000000000000000000000008152600401611b4890613218565b60405180910390fd5b805181602001fd5b63150b7a0260e01b7bffffffffffffffffffffffffffffffffffffffffffffffffffffffff1916817bffffffffffffffffffffffffffffffffffffffffffffffffffffffff191614915050611bae565b600190505b949350505050565b600073ffffffffffffffffffffffffffffffffffffffff168273ffffffffffffffffffffffffffffffffffffffff1603611c25576040517f08c379a0000000000000000000000000000000000000000000000000000000008152600401611c1c90613367565b60405180910390fd5b611c2e81611987565b15611c6e576040517f08c379a0000000000000000000000000000000000000000000000000000000008152600401611c65906133d3565b60405180910390fd5b611c7c6000838360016119c8565b611c8581611987565b15611cc5576040517f08c379a0000000000000000000000000000000000000000000000000000000008152600401611cbc906133d3565b60405180910390fd5b6001600360008473ffffffffffffffffffffffffffffffffffffffff1673ffffffffffffffffffffffffffffffffffffffff16815260200190815260200160002060008282540192505081905550816002600083815260200190815260200160002060006101000a81548173ffffffffffffffffffffffffffffffffffffffff021916908373ffffffffffffffffffffffffffffffffffffffff160217905550808273ffffffffffffffffffffffffffffffffffffffff16600073ffffffffffffffffffffffffffffffffffffffff167fddf252ad1be2c89b69c2b068fc378daa952ba7f163c4a11628f55a4df523b3ef60405160405180910390a4611dcf6000838360016119ce565b5050565b6000808273ffffffffffffffffffffffffffffffffffffffff163b119050919050565b60008115159050919050565b611e0b81611df6565b82525050565b6000602082019050611e266000830184611e02565b92915050565b6000604051905090565b600080fd5b600080fd5b60007fffffffff0000000000000000000000000000000000000000000000000000000082169050919050565b611e7581611e40565b8114611e8057600080fd5b50565b600081359050611e9281611e6c565b92915050565b600060208284031215611eae57611ead611e36565b5b6000611ebc84828501611e83565b91505092915050565b600081519050919050565b600082825260208201905092915050565b60005b83811015611eff578082015181840152602081019050611ee4565b60008484015250505050565b6000601f19601f8301169050919050565b6000611f2782611ec5565b611f318185611ed0565b9350611f41818560208601611ee1565b611f4a81611f0b565b840191505092915050565b60006020820190508181036000830152611f6f8184611f1c565b905092915050565b6000819050919050565b611f8a81611f77565b8114611f9557600080fd5b50565b600081359050611fa781611f81565b92915050565b600060208284031215611fc357611fc2611e36565b5b6000611fd184828501611f98565b91505092915050565b600073ffffffffffffffffffffffffffffffffffffffff82169050919050565b600061200582611fda565b9050919050565b61201581611ffa565b82525050565b6000602082019050612030600083018461200c565b92915050565b61203f81611ffa565b811461204a57600080fd5b50565b60008135905061205c81612036565b92915050565b6000806040838503121561207957612078611e36565b5b60006120878582860161204d565b925050602061209885828601611f98565b9150509250929050565b6120ab81611f77565b82525050565b60006020820190506120c660008301846120a2565b92915050565b6120d581611df6565b81146120e057600080fd5b50565b6000813590506120f2816120cc565b92915050565b60006020828403121561210e5761210d611e36565b5b600061211c848285016120e3565b91505092915050565b60008060006060848603121561213e5761213d611e36565b5b600061214c8682870161204d565b935050602061215d8682870161204d565b925050604061216e86828701611f98565b9150509250925092565b60006020828403121561218e5761218d611e36565b5b600061219c8482850161204d565b91505092915050565b60006121b082611fda565b9050919050565b6121c0816121a5565b82525050565b60006020820190506121db60008301846121b7565b92915050565b600080fd5b600080fd5b600080fd5b60008083601f840112612206576122056121e1565b5b8235905067ffffffffffffffff811115612223576122226121e6565b5b60208301915083600182028301111561223f5761223e6121eb565b5b9250929050565b6000806020838503121561225d5761225c611e36565b5b600083013567ffffffffffffffff81111561227b5761227a611e3b565b5b612287858286016121f0565b92509250509250929050565b600080604083850312156122aa576122a9611e36565b5b60006122b88582860161204d565b92505060206122c9858286016120e3565b9150509250929050565b600080fd5b7f4e487b7100000000000000000000000000000000000000000000000000000000600052604160045260246000fd5b61231082611f0b565b810181811067ffffffffffffffff8211171561232f5761232e6122d8565b5b80604052505050565b6000612342611e2c565b905061234e8282612307565b919050565b600067ffffffffffffffff82111561236e5761236d6122d8565b5b61237782611f0b565b9050602081019050919050565b82818337600083830152505050565b60006123a66123a184612353565b612338565b9050828152602081018484840111156123c2576123c16122d3565b5b6123cd848285612384565b509392505050565b600082601f8301126123ea576123e96121e1565b5b81356123fa848260208601612393565b91505092915050565b6000806000806080858703121561241d5761241c611e36565b5b600061242b8782880161204d565b945050602061243c8782880161204d565b935050604061244d87828801611f98565b925050606085013567ffffffffffffffff81111561246e5761246d611e3b565b5b61247a878288016123d5565b91505092959194509250565b6000806040838503121561249d5761249c611e36565b5b60006124ab8582860161204d565b92505060206124bc8582860161204d565b9150509250929050565b7f4e487b7100000000000000000000000000000000000000000000000000000000600052602260045260246000fd5b6000600282049050600182168061250d57607f821691505b6020821081036125205761251f6124c6565b5b50919050565b7f4552433732313a20617070726f76616c20746f2063757272656e74206f776e6560008201527f7200000000000000000000000000000000000000000000000000000000000000602082015250565b6000612582602183611ed0565b915061258d82612526565b604082019050919050565b600060208201905081810360008301526125b181612575565b9050919050565b7f4552433732313a20617070726f76652063616c6c6572206973206e6f7420746f60008201527f6b656e206f776e6572206f7220617070726f76656420666f7220616c6c000000602082015250565b6000612614603d83611ed0565b915061261f826125b8565b604082019050919050565b6000602082019050818103600083015261264381612607565b9050919050565b7f4552433732313a2063616c6c6572206973206e6f7420746f6b656e206f776e6560008201527f72206f7220617070726f76656400000000000000000000000000000000000000602082015250565b60006126a6602d83611ed0565b91506126b18261264a565b604082019050919050565b600060208201905081810360008301526126d581612699565b9050919050565b600081905092915050565b50565b60006126f76000836126dc565b9150612702826126e7565b600082019050919050565b6000612718826126ea565b9150819050919050565b7f5769746864726177206661696c65642100000000000000000000000000000000600082015250565b6000612758601083611ed0565b915061276382612722565b602082019050919050565b600060208201905081810360008301526127878161274b565b9050919050565b7f4552433732313a20696e76616c696420746f6b656e2049440000000000000000600082015250565b60006127c4601883611ed0565b91506127cf8261278e565b602082019050919050565b600060208201905081810360008301526127f3816127b7565b9050919050565b7f4552433732313a2061646472657373207a65726f206973206e6f74206120766160008201527f6c6964206f776e65720000000000000000000000000000000000000000000000602082015250565b6000612856602983611ed0565b9150612861826127fa565b604082019050919050565b6000602082019050818103600083015261288581612849565b9050919050565b600082905092915050565b60008190508160005260206000209050919050565b60006020601f8301049050919050565b600082821b905092915050565b6000600883026128f97fffffffffffffffffffffffffffffffffffffffffffffffffffffffffffffffff826128bc565b61290386836128bc565b95508019841693508086168417925050509392505050565b6000819050919050565b600061294061293b61293684611f77565b61291b565b611f77565b9050919050565b6000819050919050565b61295a83612925565b61296e61296682612947565b8484546128c9565b825550505050565b600090565b612983612976565b61298e818484612951565b505050565b5b818110156129b2576129a760008261297b565b600181019050612994565b5050565b601f8211156129f7576129c881612897565b6129d1846128ac565b810160208510156129e0578190505b6129f46129ec856128ac565b830182612993565b50505b505050565b600082821c905092915050565b6000612a1a600019846008026129fc565b1980831691505092915050565b6000612a338383612a09565b9150826002028217905092915050565b612a4d838361288c565b67ffffffffffffffff811115612a6657612a656122d8565b5b612a7082546124f5565b612a7b8282856129b6565b6000601f831160018114612aaa5760008415612a98578287013590505b612aa28582612a27565b865550612b0a565b601f198416612ab886612897565b60005b82811015612ae057848901358255600182019150602085019450602081019050612abb565b86831015612afd5784890135612af9601f891682612a09565b8355505b6001600288020188555050505b50505050505050565b7f4d696e74696e67206e6f7420656e61626c656421000000000000000000000000600082015250565b6000612b49601483611ed0565b9150612b5482612b13565b602082019050919050565b60006020820190508181036000830152612b7881612b3c565b9050919050565b7f4e487b7100000000000000000000000000000000000000000000000000000000600052601160045260246000fd5b6000612bb982611f77565b9150612bc483611f77565b9250828202612bd281611f77565b91508282048414831517612be957612be8612b7f565b5b5092915050565b7f57726f6e67206d696e742076616c756521000000000000000000000000000000600082015250565b6000612c26601183611ed0565b9150612c3182612bf0565b602082019050919050565b60006020820190508181036000830152612c5581612c19565b9050919050565b6000612c6782611f77565b9150612c7283611f77565b9250828201905080821115612c8a57612c89612b7f565b5b92915050565b7f536f6c64206f7574210000000000000000000000000000000000000000000000600082015250565b6000612cc6600983611ed0565b9150612cd182612c90565b602082019050919050565b60006020820190508181036000830152612cf581612cb9565b9050919050565b7f457863656564206d6178207065722077616c6c65742100000000000000000000600082015250565b6000612d32601683611ed0565b9150612d3d82612cfc565b602082019050919050565b60006020820190508181036000830152612d6181612d25565b9050919050565b6000612d7382611f77565b91507fffffffffffffffffffffffffffffffffffffffffffffffffffffffffffffffff8203612da557612da4612b7f565b5b600182019050919050565b7f546f6b656e20646f6573206e6f74206578697374210000000000000000000000600082015250565b6000612de6601583611ed0565b9150612df182612db0565b602082019050919050565b60006020820190508181036000830152612e1581612dd9565b9050919050565b600081905092915050565b60008154612e34816124f5565b612e3e8186612e1c565b94506001821660008114612e595760018114612e6e57612ea1565b60ff1983168652811515820286019350612ea1565b612e7785612897565b60005b83811015612e9957815481890152600182019150602081019050612e7a565b838801955050505b50505092915050565b7f506173734e46542e6a736f6e3f616c743d6d6564696100000000000000000000600082015250565b6000612ee0601683612e1c565b9150612eeb82612eaa565b601682019050919050565b6000612f028284612e27565b9150612f0d82612ed3565b915081905092915050565b7f4f776e61626c653a206e6577206f776e657220697320746865207a65726f206160008201527f6464726573730000000000000000000000000000000000000000000000000000602082015250565b6000612f74602683611ed0565b9150612f7f82612f18565b604082019050919050565b60006020820190508181036000830152612fa381612f67565b9050919050565b7f4f776e61626c653a2063616c6c6572206973206e6f7420746865206f776e6572600082015250565b6000612fe0602083611ed0565b9150612feb82612faa565b602082019050919050565b6000602082019050818103600083015261300f81612fd3565b9050919050565b7f4552433732313a207472616e736665722066726f6d20696e636f72726563742060008201527f6f776e6572000000000000000000000000000000000000000000000000000000602082015250565b6000613072602583611ed0565b915061307d82613016565b604082019050919050565b600060208201905081810360008301526130a181613065565b9050919050565b7f4552433732313a207472616e7366657220746f20746865207a65726f2061646460008201527f7265737300000000000000000000000000000000000000000000000000000000602082015250565b6000613104602483611ed0565b915061310f826130a8565b604082019050919050565b60006020820190508181036000830152613133816130f7565b9050919050565b7f4552433732313a20617070726f766520746f2063616c6c657200000000000000600082015250565b6000613170601983611ed0565b915061317b8261313a565b602082019050919050565b6000602082019050818103600083015261319f81613163565b9050919050565b7f4552433732313a207472616e7366657220746f206e6f6e20455243373231526560008201527f63656976657220696d706c656d656e7465720000000000000000000000000000602082015250565b6000613202603283611ed0565b915061320d826131a6565b604082019050919050565b60006020820190508181036000830152613231816131f5565b9050919050565b600081519050919050565b600082825260208201905092915050565b600061325f82613238565b6132698185613243565b9350613279818560208601611ee1565b61328281611f0b565b840191505092915050565b60006080820190506132a2600083018761200c565b6132af602083018661200c565b6132bc60408301856120a2565b81810360608301526132ce8184613254565b905095945050505050565b6000815190506132e881611e6c565b92915050565b60006020828403121561330457613303611e36565b5b6000613312848285016132d9565b91505092915050565b7f4552433732313a206d696e7420746f20746865207a65726f2061646472657373600082015250565b6000613351602083611ed0565b915061335c8261331b565b602082019050919050565b6000602082019050818103600083015261338081613344565b9050919050565b7f4552433732313a20746f6b656e20616c7265616479206d696e74656400000000600082015250565b60006133bd601c83611ed0565b91506133c882613387565b602082019050919050565b600060208201905081810360008301526133ec816133b0565b905091905056fea26469706673582212206bd7572abcbe56ac1b7efe3d6056e410e55879a8b0776d331eabfde6ff6ef97964736f6c63430008140033",
  "linkReferences": {},
  "deployedLinkReferences": {}
}