{
  "_format": "hh-sol-artifact-1",
  "contractName": "PassNFT",
  "sourceName": "contracts/PassNFT.sol",
  "abi": [
    {
      "inputs": [
        {
          "internalType": "string",
          "name": "_tokenUri",
          "type": "string"
        },
        {
          "internalType": "string",
          "name": "_fileName",
          "type": "string"
        }
      ],
      "stateMutability": "payable",
      "type": "constructor"
    },
    {
      "anonymous": false,
      "inputs": [
        {
          "indexed": true,
          "internalType": "address",
          "name": "owner",
          "type": "address"
        },
        {
          "indexed": true,
          "internalType": "address",
          "name": "approved",
          "type": "address"
        },
        {
          "indexed": true,
          "internalType": "uint256",
          "name": "tokenId",
          "type": "uint256"
        }
      ],
      "name": "Approval",
      "type": "event"
    },
    {
      "anonymous": false,
      "inputs": [
        {
          "indexed": true,
          "internalType": "address",
          "name": "owner",
          "type": "address"
        },
        {
          "indexed": true,
          "internalType": "address",
          "name": "operator",
          "type": "address"
        },
        {
          "indexed": false,
          "internalType": "bool",
          "name": "approved",
          "type": "bool"
        }
      ],
      "name": "ApprovalForAll",
      "type": "event"
    },
    {
      "anonymous": false,
      "inputs": [
        {
          "indexed": true,
          "internalType": "address",
          "name": "previousOwner",
          "type": "address"
        },
        {
          "indexed": true,
          "internalType": "address",
          "name": "newOwner",
          "type": "address"
        }
      ],
      "name": "OwnershipTransferred",
      "type": "event"
    },
    {
      "anonymous": false,
      "inputs": [
        {
          "indexed": true,
          "internalType": "address",
          "name": "from",
          "type": "address"
        },
        {
          "indexed": true,
          "internalType": "address",
          "name": "to",
          "type": "address"
        },
        {
          "indexed": true,
          "internalType": "uint256",
          "name": "tokenId",
          "type": "uint256"
        }
      ],
      "name": "Transfer",
      "type": "event"
    },
    {
      "inputs": [
        {
          "internalType": "address",
          "name": "to",
          "type": "address"
        },
        {
          "internalType": "uint256",
          "name": "tokenId",
          "type": "uint256"
        }
      ],
      "name": "approve",
      "outputs": [],
      "stateMutability": "nonpayable",
      "type": "function"
    },
    {
      "inputs": [
        {
          "internalType": "address",
          "name": "owner",
          "type": "address"
        }
      ],
      "name": "balanceOf",
      "outputs": [
        {
          "internalType": "uint256",
          "name": "",
          "type": "uint256"
        }
      ],
      "stateMutability": "view",
      "type": "function"
    },
    {
      "inputs": [
        {
          "internalType": "uint256",
          "name": "tokenId",
          "type": "uint256"
        }
      ],
      "name": "getApproved",
      "outputs": [
        {
          "internalType": "address",
          "name": "",
          "type": "address"
        }
      ],
      "stateMutability": "view",
      "type": "function"
    },
    {
      "inputs": [
        {
          "internalType": "address",
          "name": "owner",
          "type": "address"
        },
        {
          "internalType": "address",
          "name": "operator",
          "type": "address"
        }
      ],
      "name": "isApprovedForAll",
      "outputs": [
        {
          "internalType": "bool",
          "name": "",
          "type": "bool"
        }
      ],
      "stateMutability": "view",
      "type": "function"
    },
    {
      "inputs": [],
      "name": "isPublicMintEnabled",
      "outputs": [
        {
          "internalType": "bool",
          "name": "",
          "type": "bool"
        }
      ],
      "stateMutability": "view",
      "type": "function"
    },
    {
      "inputs": [],
      "name": "maxPerWallet",
      "outputs": [
        {
          "internalType": "uint8",
          "name": "",
          "type": "uint8"
        }
      ],
      "stateMutability": "view",
      "type": "function"
    },
    {
      "inputs": [],
      "name": "maxSupply",
      "outputs": [
        {
          "internalType": "uint256",
          "name": "",
          "type": "uint256"
        }
      ],
      "stateMutability": "view",
      "type": "function"
    },
    {
      "inputs": [
        {
          "internalType": "uint256",
          "name": "mintAmount",
          "type": "uint256"
        }
      ],
      "name": "mint",
      "outputs": [],
      "stateMutability": "payable",
      "type": "function"
    },
    {
      "inputs": [],
      "name": "mintPrice",
      "outputs": [
        {
          "internalType": "uint256",
          "name": "",
          "type": "uint256"
        }
      ],
      "stateMutability": "view",
      "type": "function"
    },
    {
      "inputs": [],
      "name": "name",
      "outputs": [
        {
          "internalType": "string",
          "name": "",
          "type": "string"
        }
      ],
      "stateMutability": "view",
      "type": "function"
    },
    {
      "inputs": [],
      "name": "owner",
      "outputs": [
        {
          "internalType": "address",
          "name": "",
          "type": "address"
        }
      ],
      "stateMutability": "view",
      "type": "function"
    },
    {
      "inputs": [
        {
          "internalType": "uint256",
          "name": "tokenId",
          "type": "uint256"
        }
      ],
      "name": "ownerOf",
      "outputs": [
        {
          "internalType": "address",
          "name": "",
          "type": "address"
        }
      ],
      "stateMutability": "view",
      "type": "function"
    },
    {
      "inputs": [],
      "name": "renounceOwnership",
      "outputs": [],
      "stateMutability": "nonpayable",
      "type": "function"
    },
    {
      "inputs": [
        {
          "internalType": "address",
          "name": "from",
          "type": "address"
        },
        {
          "internalType": "address",
          "name": "to",
          "type": "address"
        },
        {
          "internalType": "uint256",
          "name": "tokenId",
          "type": "uint256"
        }
      ],
      "name": "safeTransferFrom",
      "outputs": [],
      "stateMutability": "nonpayable",
      "type": "function"
    },
    {
      "inputs": [
        {
          "internalType": "address",
          "name": "from",
          "type": "address"
        },
        {
          "internalType": "address",
          "name": "to",
          "type": "address"
        },
        {
          "internalType": "uint256",
          "name": "tokenId",
          "type": "uint256"
        },
        {
          "internalType": "bytes",
          "name": "data",
          "type": "bytes"
        }
      ],
      "name": "safeTransferFrom",
      "outputs": [],
      "stateMutability": "nonpayable",
      "type": "function"
    },
    {
      "inputs": [
        {
          "internalType": "address",
          "name": "operator",
          "type": "address"
        },
        {
          "internalType": "bool",
          "name": "approved",
          "type": "bool"
        }
      ],
      "name": "setApprovalForAll",
      "outputs": [],
      "stateMutability": "nonpayable",
      "type": "function"
    },
    {
      "inputs": [
        {
          "internalType": "string",
          "name": "_baseTokenUri",
          "type": "string"
        }
      ],
      "name": "setBaseTokenUri",
      "outputs": [],
      "stateMutability": "nonpayable",
      "type": "function"
    },
    {
      "inputs": [
        {
          "internalType": "bool",
          "name": "_isPublicMintEnabled",
          "type": "bool"
        }
      ],
      "name": "setIsPublicMintEnabled",
      "outputs": [],
      "stateMutability": "nonpayable",
      "type": "function"
    },
    {
      "inputs": [
        {
          "internalType": "string",
          "name": "_tokenMetadataFilename",
          "type": "string"
        }
      ],
      "name": "setTokenMetadataFilename",
      "outputs": [],
      "stateMutability": "nonpayable",
      "type": "function"
    },
    {
      "inputs": [
        {
          "internalType": "address payable",
          "name": "_address",
          "type": "address"
        }
      ],
      "name": "setWithdrawWallet",
      "outputs": [],
      "stateMutability": "nonpayable",
      "type": "function"
    },
    {
      "inputs": [
        {
          "internalType": "bytes4",
          "name": "interfaceId",
          "type": "bytes4"
        }
      ],
      "name": "supportsInterface",
      "outputs": [
        {
          "internalType": "bool",
          "name": "",
          "type": "bool"
        }
      ],
      "stateMutability": "view",
      "type": "function"
    },
    {
      "inputs": [],
      "name": "symbol",
      "outputs": [
        {
          "internalType": "string",
          "name": "",
          "type": "string"
        }
      ],
      "stateMutability": "view",
      "type": "function"
    },
    {
      "inputs": [
        {
          "internalType": "uint256",
          "name": "tokenId",
          "type": "uint256"
        }
      ],
      "name": "tokenURI",
      "outputs": [
        {
          "internalType": "string",
          "name": "",
          "type": "string"
        }
      ],
      "stateMutability": "view",
      "type": "function"
    },
    {
      "inputs": [],
      "name": "totalSupply",
      "outputs": [
        {
          "internalType": "uint256",
          "name": "",
          "type": "uint256"
        }
      ],
      "stateMutability": "view",
      "type": "function"
    },
    {
      "inputs": [
        {
          "internalType": "address",
          "name": "from",
          "type": "address"
        },
        {
          "internalType": "address",
          "name": "to",
          "type": "address"
        },
        {
          "internalType": "uint256",
          "name": "tokenId",
          "type": "uint256"
        }
      ],
      "name": "transferFrom",
      "outputs": [],
      "stateMutability": "nonpayable",
      "type": "function"
    },
    {
      "inputs": [
        {
          "internalType": "address",
          "name": "newOwner",
          "type": "address"
        }
      ],
      "name": "transferOwnership",
      "outputs": [],
      "stateMutability": "nonpayable",
      "type": "function"
    },
    {
      "inputs": [
        {
          "internalType": "address",
          "name": "",
          "type": "address"
        }
      ],
      "name": "walletMints",
      "outputs": [
        {
          "internalType": "uint8",
          "name": "",
          "type": "uint8"
        }
      ],
      "stateMutability": "view",
      "type": "function"
    },
    {
      "inputs": [],
      "name": "withdraw",
      "outputs": [],
      "stateMutability": "nonpayable",
      "type": "function"
    },
    {
      "inputs": [],
      "name": "withdrawWallet",
      "outputs": [
        {
          "internalType": "address payable",
          "name": "",
          "type": "address"
        }
      ],
      "stateMutability": "view",
      "type": "function"
    }
  ],
  "bytecode": "0x608060405260405162003e0438038062003e048339818101604052810190620000299190620003a3565b6040518060400160405280600f81526020017f4d696e7465722050617373204e465400000000000000000000000000000000008152506040518060400160405280600281526020017f4d500000000000000000000000000000000000000000000000000000000000008152508160009081620000a6919062000673565b508060019081620000b8919062000673565b505050620000db620000cf6200014260201b60201c565b6200014a60201b60201c565b662386f26fc1000060078190555060006008819055506127106009819055506001600a60006101000a81548160ff021916908360ff16021790555081600b908162000127919062000673565b5080600c908162000139919062000673565b5050506200075a565b600033905090565b6000600660009054906101000a900473ffffffffffffffffffffffffffffffffffffffff16905081600660006101000a81548173ffffffffffffffffffffffffffffffffffffffff021916908373ffffffffffffffffffffffffffffffffffffffff1602179055508173ffffffffffffffffffffffffffffffffffffffff168173ffffffffffffffffffffffffffffffffffffffff167f8be0079c531659141344cd1fd0a4f28419497f9722a3daafe3b4186f6b6457e060405160405180910390a35050565b6000604051905090565b600080fd5b600080fd5b600080fd5b600080fd5b6000601f19601f8301169050919050565b7f4e487b7100000000000000000000000000000000000000000000000000000000600052604160045260246000fd5b62000279826200022e565b810181811067ffffffffffffffff821117156200029b576200029a6200023f565b5b80604052505050565b6000620002b062000210565b9050620002be82826200026e565b919050565b600067ffffffffffffffff821115620002e157620002e06200023f565b5b620002ec826200022e565b9050602081019050919050565b60005b8381101562000319578082015181840152602081019050620002fc565b60008484015250505050565b60006200033c6200033684620002c3565b620002a4565b9050828152602081018484840111156200035b576200035a62000229565b5b62000368848285620002f9565b509392505050565b600082601f83011262000388576200038762000224565b5b81516200039a84826020860162000325565b91505092915050565b60008060408385031215620003bd57620003bc6200021a565b5b600083015167ffffffffffffffff811115620003de57620003dd6200021f565b5b620003ec8582860162000370565b925050602083015167ffffffffffffffff81111562000410576200040f6200021f565b5b6200041e8582860162000370565b9150509250929050565b600081519050919050565b7f4e487b7100000000000000000000000000000000000000000000000000000000600052602260045260246000fd5b600060028204905060018216806200047b57607f821691505b60208210810362000491576200049062000433565b5b50919050565b60008190508160005260206000209050919050565b60006020601f8301049050919050565b600082821b905092915050565b600060088302620004fb7fffffffffffffffffffffffffffffffffffffffffffffffffffffffffffffffff82620004bc565b620005078683620004bc565b95508019841693508086168417925050509392505050565b6000819050919050565b6000819050919050565b6000620005546200054e62000548846200051f565b62000529565b6200051f565b9050919050565b6000819050919050565b620005708362000533565b620005886200057f826200055b565b848454620004c9565b825550505050565b600090565b6200059f62000590565b620005ac81848462000565565b505050565b5b81811015620005d457620005c860008262000595565b600181019050620005b2565b5050565b601f8211156200062357620005ed8162000497565b620005f884620004ac565b8101602085101562000608578190505b620006206200061785620004ac565b830182620005b1565b50505b505050565b600082821c905092915050565b6000620006486000198460080262000628565b1980831691505092915050565b600062000663838362000635565b9150826002028217905092915050565b6200067e8262000428565b67ffffffffffffffff8111156200069a57620006996200023f565b5b620006a6825462000462565b620006b3828285620005d8565b600060209050601f831160018114620006eb5760008415620006d6578287015190505b620006e2858262000655565b86555062000752565b601f198416620006fb8662000497565b60005b828110156200072557848901518255600182019150602085019450602081019050620006fe565b8683101562000745578489015162000741601f89168262000635565b8355505b6001600288020188555050505b505050505050565b61369a806200076a6000396000f3fe6080604052600436106101c25760003560e01c8063715018a6116100f7578063a22cb46511610095578063d5abeb0111610064578063d5abeb011461060b578063e985e9c514610636578063f0293fd314610673578063f2fde38b146106b0576101c2565b8063a22cb46514610553578063b88d4fde1461057c578063c34ee9e1146105a5578063c87b56dd146105ce576101c2565b80639373f432116100d15780639373f432146104ba57806395652cfa146104e357806395d89b411461050c578063a0712d6814610537576101c2565b8063715018a61461044d57806385d178f4146104645780638da5cb5b1461048f576101c2565b806323b872dd11610164578063453c23101161013e578063453c23101461037d5780636352211e146103a85780636817c76c146103e557806370a0823114610410576101c2565b806323b872dd146103145780633ccfd60b1461033d57806342842e0e14610354576101c2565b8063081812fc116101a0578063081812fc1461025a578063095ea7b31461029757806318160ddd146102c05780632373ac22146102eb576101c2565b80630116bc2d146101c757806301ffc9a7146101f257806306fdde031461022f575b600080fd5b3480156101d357600080fd5b506101dc6106d9565b6040516101e99190611fde565b60405180910390f35b3480156101fe57600080fd5b5061021960048036038101906102149190612065565b6106ec565b6040516102269190611fde565b60405180910390f35b34801561023b57600080fd5b506102446107ce565b6040516102519190612122565b60405180910390f35b34801561026657600080fd5b50610281600480360381019061027c919061217a565b610860565b60405161028e91906121e8565b60405180910390f35b3480156102a357600080fd5b506102be60048036038101906102b9919061222f565b6108a6565b005b3480156102cc57600080fd5b506102d56109bd565b6040516102e2919061227e565b60405180910390f35b3480156102f757600080fd5b50610312600480360381019061030d91906122c5565b6109c3565b005b34801561032057600080fd5b5061033b600480360381019061033691906122f2565b6109e8565b005b34801561034957600080fd5b50610352610a48565b005b34801561036057600080fd5b5061037b600480360381019061037691906122f2565b610b21565b005b34801561038957600080fd5b50610392610b41565b60405161039f9190612361565b60405180910390f35b3480156103b457600080fd5b506103cf60048036038101906103ca919061217a565b610b54565b6040516103dc91906121e8565b60405180910390f35b3480156103f157600080fd5b506103fa610bda565b604051610407919061227e565b60405180910390f35b34801561041c57600080fd5b506104376004803603810190610432919061237c565b610be0565b604051610444919061227e565b60405180910390f35b34801561045957600080fd5b50610462610c97565b005b34801561047057600080fd5b50610479610cab565b60405161048691906123ca565b60405180910390f35b34801561049b57600080fd5b506104a4610cd1565b6040516104b191906121e8565b60405180910390f35b3480156104c657600080fd5b506104e160048036038101906104dc9190612411565b610cfb565b005b3480156104ef57600080fd5b5061050a600480360381019061050591906124a3565b610d47565b005b34801561051857600080fd5b50610521610d65565b60405161052e9190612122565b60405180910390f35b610551600480360381019061054c919061217a565b610df7565b005b34801561055f57600080fd5b5061057a600480360381019061057591906124f0565b6110a1565b005b34801561058857600080fd5b506105a3600480360381019061059e9190612660565b6110b7565b005b3480156105b157600080fd5b506105cc60048036038101906105c791906124a3565b611119565b005b3480156105da57600080fd5b506105f560048036038101906105f0919061217a565b611137565b6040516106029190612122565b60405180910390f35b34801561061757600080fd5b506106206111ac565b60405161062d919061227e565b60405180910390f35b34801561064257600080fd5b5061065d600480360381019061065891906126e3565b6111b2565b60405161066a9190611fde565b60405180910390f35b34801561067f57600080fd5b5061069a6004803603810190610695919061237c565b611246565b6040516106a79190612361565b60405180910390f35b3480156106bc57600080fd5b506106d760048036038101906106d2919061237c565b611266565b005b600a60019054906101000a900460ff1681565b60007f80ac58cd000000000000000000000000000000000000000000000000000000007bffffffffffffffffffffffffffffffffffffffffffffffffffffffff1916827bffffffffffffffffffffffffffffffffffffffffffffffffffffffff191614806107b757507f5b5e139f000000000000000000000000000000000000000000000000000000007bffffffffffffffffffffffffffffffffffffffffffffffffffffffff1916827bffffffffffffffffffffffffffffffffffffffffffffffffffffffff1916145b806107c757506107c6826112e9565b5b9050919050565b6060600080546107dd90612752565b80601f016020809104026020016040519081016040528092919081815260200182805461080990612752565b80156108565780601f1061082b57610100808354040283529160200191610856565b820191906000526020600020905b81548152906001019060200180831161083957829003601f168201915b5050505050905090565b600061086b82611353565b6004600083815260200190815260200160002060009054906101000a900473ffffffffffffffffffffffffffffffffffffffff169050919050565b60006108b182610b54565b90508073ffffffffffffffffffffffffffffffffffffffff168373ffffffffffffffffffffffffffffffffffffffff1603610921576040517f08c379a0000000000000000000000000000000000000000000000000000000008152600401610918906127f5565b60405180910390fd5b8073ffffffffffffffffffffffffffffffffffffffff1661094061139e565b73ffffffffffffffffffffffffffffffffffffffff16148061096f575061096e8161096961139e565b6111b2565b5b6109ae576040517f08c379a00000000000000000000000000000000000000000000000000000000081526004016109a590612887565b60405180910390fd5b6109b883836113a6565b505050565b60085481565b6109cb61145f565b80600a60016101000a81548160ff02191690831515021790555050565b6109f96109f361139e565b826114dd565b610a38576040517f08c379a0000000000000000000000000000000000000000000000000000000008152600401610a2f90612919565b60405180910390fd5b610a43838383611572565b505050565b610a5061145f565b6000600d60009054906101000a900473ffffffffffffffffffffffffffffffffffffffff1673ffffffffffffffffffffffffffffffffffffffff1647604051610a989061296a565b60006040518083038185875af1925050503d8060008114610ad5576040519150601f19603f3d011682016040523d82523d6000602084013e610ada565b606091505b5050905080610b1e576040517f08c379a0000000000000000000000000000000000000000000000000000000008152600401610b15906129cb565b60405180910390fd5b50565b610b3c838383604051806020016040528060008152506110b7565b505050565b600a60009054906101000a900460ff1681565b600080610b608361186b565b9050600073ffffffffffffffffffffffffffffffffffffffff168173ffffffffffffffffffffffffffffffffffffffff1603610bd1576040517f08c379a0000000000000000000000000000000000000000000000000000000008152600401610bc890612a37565b60405180910390fd5b80915050919050565b60075481565b60008073ffffffffffffffffffffffffffffffffffffffff168273ffffffffffffffffffffffffffffffffffffffff1603610c50576040517f08c379a0000000000000000000000000000000000000000000000000000000008152600401610c4790612ac9565b60405180910390fd5b600360008373ffffffffffffffffffffffffffffffffffffffff1673ffffffffffffffffffffffffffffffffffffffff168152602001908152602001600020549050919050565b610c9f61145f565b610ca960006118a8565b565b600d60009054906101000a900473ffffffffffffffffffffffffffffffffffffffff1681565b6000600660009054906101000a900473ffffffffffffffffffffffffffffffffffffffff16905090565b610d0361145f565b80600d60006101000a81548173ffffffffffffffffffffffffffffffffffffffff021916908373ffffffffffffffffffffffffffffffffffffffff16021790555050565b610d4f61145f565b8181600b9182610d60929190612ca0565b505050565b606060018054610d7490612752565b80601f0160208091040260200160405190810160405280929190818152602001828054610da090612752565b8015610ded5780601f10610dc257610100808354040283529160200191610ded565b820191906000526020600020905b815481529060010190602001808311610dd057829003601f168201915b5050505050905090565b600a60019054906101000a900460ff16610e46576040517f08c379a0000000000000000000000000000000000000000000000000000000008152600401610e3d90612dbc565b60405180910390fd5b60075481610e549190612e0b565b3414610e95576040517f08c379a0000000000000000000000000000000000000000000000000000000008152600401610e8c90612e99565b60405180910390fd5b60095481600854610ea69190612eb9565b1115610ee7576040517f08c379a0000000000000000000000000000000000000000000000000000000008152600401610ede90612f39565b60405180910390fd5b600a60009054906101000a900460ff1660ff1681600e60003373ffffffffffffffffffffffffffffffffffffffff1673ffffffffffffffffffffffffffffffffffffffff16815260200190815260200160002060009054906101000a900460ff1660ff16610f559190612eb9565b1115610f96576040517f08c379a0000000000000000000000000000000000000000000000000000000008152600401610f8d90612fa5565b60405180910390fd5b60005b818160ff16101561109d5760006001600854610fb59190612eb9565b9050610fc1338261196e565b6001600e60003373ffffffffffffffffffffffffffffffffffffffff1673ffffffffffffffffffffffffffffffffffffffff16815260200190815260200160002060009054906101000a900460ff1661101a9190612fc5565b600e60003373ffffffffffffffffffffffffffffffffffffffff1673ffffffffffffffffffffffffffffffffffffffff16815260200190815260200160002060006101000a81548160ff021916908360ff1602179055506008600081548092919061108490612ffa565b919050555050808061109590613042565b915050610f99565b5050565b6110b36110ac61139e565b838361198c565b5050565b6110c86110c261139e565b836114dd565b611107576040517f08c379a00000000000000000000000000000000000000000000000000000000081526004016110fe90612919565b60405180910390fd5b61111384848484611af8565b50505050565b61112161145f565b8181600c9182611132929190612ca0565b505050565b606061114282611b54565b611181576040517f08c379a0000000000000000000000000000000000000000000000000000000008152600401611178906130b7565b60405180910390fd5b600b600c604051602001611196929190613165565b6040516020818303038152906040529050919050565b60095481565b6000600560008473ffffffffffffffffffffffffffffffffffffffff1673ffffffffffffffffffffffffffffffffffffffff16815260200190815260200160002060008373ffffffffffffffffffffffffffffffffffffffff1673ffffffffffffffffffffffffffffffffffffffff16815260200190815260200160002060009054906101000a900460ff16905092915050565b600e6020528060005260406000206000915054906101000a900460ff1681565b61126e61145f565b600073ffffffffffffffffffffffffffffffffffffffff168173ffffffffffffffffffffffffffffffffffffffff16036112dd576040517f08c379a00000000000000000000000000000000000000000000000000000000081526004016112d4906131fb565b60405180910390fd5b6112e6816118a8565b50565b60007f01ffc9a7000000000000000000000000000000000000000000000000000000007bffffffffffffffffffffffffffffffffffffffffffffffffffffffff1916827bffffffffffffffffffffffffffffffffffffffffffffffffffffffff1916149050919050565b61135c81611b54565b61139b576040517f08c379a000000000000000000000000000000000000000000000000000000000815260040161139290612a37565b60405180910390fd5b50565b600033905090565b816004600083815260200190815260200160002060006101000a81548173ffffffffffffffffffffffffffffffffffffffff021916908373ffffffffffffffffffffffffffffffffffffffff160217905550808273ffffffffffffffffffffffffffffffffffffffff1661141983610b54565b73ffffffffffffffffffffffffffffffffffffffff167f8c5be1e5ebec7d5bd14f71427d1e84f3dd0314c0f7b2291e5b200ac8c7c3b92560405160405180910390a45050565b61146761139e565b73ffffffffffffffffffffffffffffffffffffffff16611485610cd1565b73ffffffffffffffffffffffffffffffffffffffff16146114db576040517f08c379a00000000000000000000000000000000000000000000000000000000081526004016114d290613267565b60405180910390fd5b565b6000806114e983610b54565b90508073ffffffffffffffffffffffffffffffffffffffff168473ffffffffffffffffffffffffffffffffffffffff16148061152b575061152a81856111b2565b5b8061156957508373ffffffffffffffffffffffffffffffffffffffff1661155184610860565b73ffffffffffffffffffffffffffffffffffffffff16145b91505092915050565b8273ffffffffffffffffffffffffffffffffffffffff1661159282610b54565b73ffffffffffffffffffffffffffffffffffffffff16146115e8576040517f08c379a00000000000000000000000000000000000000000000000000000000081526004016115df906132f9565b60405180910390fd5b600073ffffffffffffffffffffffffffffffffffffffff168273ffffffffffffffffffffffffffffffffffffffff1603611657576040517f08c379a000000000000000000000000000000000000000000000000000000000815260040161164e9061338b565b60405180910390fd5b6116648383836001611b95565b8273ffffffffffffffffffffffffffffffffffffffff1661168482610b54565b73ffffffffffffffffffffffffffffffffffffffff16146116da576040517f08c379a00000000000000000000000000000000000000000000000000000000081526004016116d1906132f9565b60405180910390fd5b6004600082815260200190815260200160002060006101000a81549073ffffffffffffffffffffffffffffffffffffffff02191690556001600360008573ffffffffffffffffffffffffffffffffffffffff1673ffffffffffffffffffffffffffffffffffffffff168152602001908152602001600020600082825403925050819055506001600360008473ffffffffffffffffffffffffffffffffffffffff1673ffffffffffffffffffffffffffffffffffffffff16815260200190815260200160002060008282540192505081905550816002600083815260200190815260200160002060006101000a81548173ffffffffffffffffffffffffffffffffffffffff021916908373ffffffffffffffffffffffffffffffffffffffff160217905550808273ffffffffffffffffffffffffffffffffffffffff168473ffffffffffffffffffffffffffffffffffffffff167fddf252ad1be2c89b69c2b068fc378daa952ba7f163c4a11628f55a4df523b3ef60405160405180910390a46118668383836001611b9b565b505050565b60006002600083815260200190815260200160002060009054906101000a900473ffffffffffffffffffffffffffffffffffffffff169050919050565b6000600660009054906101000a900473ffffffffffffffffffffffffffffffffffffffff16905081600660006101000a81548173ffffffffffffffffffffffffffffffffffffffff021916908373ffffffffffffffffffffffffffffffffffffffff1602179055508173ffffffffffffffffffffffffffffffffffffffff168173ffffffffffffffffffffffffffffffffffffffff167f8be0079c531659141344cd1fd0a4f28419497f9722a3daafe3b4186f6b6457e060405160405180910390a35050565b611988828260405180602001604052806000815250611ba1565b5050565b8173ffffffffffffffffffffffffffffffffffffffff168373ffffffffffffffffffffffffffffffffffffffff16036119fa576040517f08c379a00000000000000000000000000000000000000000000000000000000081526004016119f1906133f7565b60405180910390fd5b80600560008573ffffffffffffffffffffffffffffffffffffffff1673ffffffffffffffffffffffffffffffffffffffff16815260200190815260200160002060008473ffffffffffffffffffffffffffffffffffffffff1673ffffffffffffffffffffffffffffffffffffffff16815260200190815260200160002060006101000a81548160ff0219169083151502179055508173ffffffffffffffffffffffffffffffffffffffff168373ffffffffffffffffffffffffffffffffffffffff167f17307eab39ab6107e8899845ad3d59bd9653f200f220920489ca2b5937696c3183604051611aeb9190611fde565b60405180910390a3505050565b611b03848484611572565b611b0f84848484611bfc565b611b4e576040517f08c379a0000000000000000000000000000000000000000000000000000000008152600401611b4590613489565b60405180910390fd5b50505050565b60008073ffffffffffffffffffffffffffffffffffffffff16611b768361186b565b73ffffffffffffffffffffffffffffffffffffffff1614159050919050565b50505050565b50505050565b611bab8383611d83565b611bb86000848484611bfc565b611bf7576040517f08c379a0000000000000000000000000000000000000000000000000000000008152600401611bee90613489565b60405180910390fd5b505050565b6000611c1d8473ffffffffffffffffffffffffffffffffffffffff16611fa0565b15611d76578373ffffffffffffffffffffffffffffffffffffffff1663150b7a02611c4661139e565b8786866040518563ffffffff1660e01b8152600401611c6894939291906134fe565b6020604051808303816000875af1925050508015611ca457506040513d601f19601f82011682018060405250810190611ca1919061355f565b60015b611d26573d8060008114611cd4576040519150601f19603f3d011682016040523d82523d6000602084013e611cd9565b606091505b506000815103611d1e576040517f08c379a0000000000000000000000000000000000000000000000000000000008152600401611d1590613489565b60405180910390fd5b805181602001fd5b63150b7a0260e01b7bffffffffffffffffffffffffffffffffffffffffffffffffffffffff1916817bffffffffffffffffffffffffffffffffffffffffffffffffffffffff191614915050611d7b565b600190505b949350505050565b600073ffffffffffffffffffffffffffffffffffffffff168273ffffffffffffffffffffffffffffffffffffffff1603611df2576040517f08c379a0000000000000000000000000000000000000000000000000000000008152600401611de9906135d8565b60405180910390fd5b611dfb81611b54565b15611e3b576040517f08c379a0000000000000000000000000000000000000000000000000000000008152600401611e3290613644565b60405180910390fd5b611e49600083836001611b95565b611e5281611b54565b15611e92576040517f08c379a0000000000000000000000000000000000000000000000000000000008152600401611e8990613644565b60405180910390fd5b6001600360008473ffffffffffffffffffffffffffffffffffffffff1673ffffffffffffffffffffffffffffffffffffffff16815260200190815260200160002060008282540192505081905550816002600083815260200190815260200160002060006101000a81548173ffffffffffffffffffffffffffffffffffffffff021916908373ffffffffffffffffffffffffffffffffffffffff160217905550808273ffffffffffffffffffffffffffffffffffffffff16600073ffffffffffffffffffffffffffffffffffffffff167fddf252ad1be2c89b69c2b068fc378daa952ba7f163c4a11628f55a4df523b3ef60405160405180910390a4611f9c600083836001611b9b565b5050565b6000808273ffffffffffffffffffffffffffffffffffffffff163b119050919050565b60008115159050919050565b611fd881611fc3565b82525050565b6000602082019050611ff36000830184611fcf565b92915050565b6000604051905090565b600080fd5b600080fd5b60007fffffffff0000000000000000000000000000000000000000000000000000000082169050919050565b6120428161200d565b811461204d57600080fd5b50565b60008135905061205f81612039565b92915050565b60006020828403121561207b5761207a612003565b5b600061208984828501612050565b91505092915050565b600081519050919050565b600082825260208201905092915050565b60005b838110156120cc5780820151818401526020810190506120b1565b60008484015250505050565b6000601f19601f8301169050919050565b60006120f482612092565b6120fe818561209d565b935061210e8185602086016120ae565b612117816120d8565b840191505092915050565b6000602082019050818103600083015261213c81846120e9565b905092915050565b6000819050919050565b61215781612144565b811461216257600080fd5b50565b6000813590506121748161214e565b92915050565b6000602082840312156121905761218f612003565b5b600061219e84828501612165565b91505092915050565b600073ffffffffffffffffffffffffffffffffffffffff82169050919050565b60006121d2826121a7565b9050919050565b6121e2816121c7565b82525050565b60006020820190506121fd60008301846121d9565b92915050565b61220c816121c7565b811461221757600080fd5b50565b60008135905061222981612203565b92915050565b6000806040838503121561224657612245612003565b5b60006122548582860161221a565b925050602061226585828601612165565b9150509250929050565b61227881612144565b82525050565b6000602082019050612293600083018461226f565b92915050565b6122a281611fc3565b81146122ad57600080fd5b50565b6000813590506122bf81612299565b92915050565b6000602082840312156122db576122da612003565b5b60006122e9848285016122b0565b91505092915050565b60008060006060848603121561230b5761230a612003565b5b60006123198682870161221a565b935050602061232a8682870161221a565b925050604061233b86828701612165565b9150509250925092565b600060ff82169050919050565b61235b81612345565b82525050565b60006020820190506123766000830184612352565b92915050565b60006020828403121561239257612391612003565b5b60006123a08482850161221a565b91505092915050565b60006123b4826121a7565b9050919050565b6123c4816123a9565b82525050565b60006020820190506123df60008301846123bb565b92915050565b6123ee816123a9565b81146123f957600080fd5b50565b60008135905061240b816123e5565b92915050565b60006020828403121561242757612426612003565b5b6000612435848285016123fc565b91505092915050565b600080fd5b600080fd5b600080fd5b60008083601f8401126124635761246261243e565b5b8235905067ffffffffffffffff8111156124805761247f612443565b5b60208301915083600182028301111561249c5761249b612448565b5b9250929050565b600080602083850312156124ba576124b9612003565b5b600083013567ffffffffffffffff8111156124d8576124d7612008565b5b6124e48582860161244d565b92509250509250929050565b6000806040838503121561250757612506612003565b5b60006125158582860161221a565b9250506020612526858286016122b0565b9150509250929050565b600080fd5b7f4e487b7100000000000000000000000000000000000000000000000000000000600052604160045260246000fd5b61256d826120d8565b810181811067ffffffffffffffff8211171561258c5761258b612535565b5b80604052505050565b600061259f611ff9565b90506125ab8282612564565b919050565b600067ffffffffffffffff8211156125cb576125ca612535565b5b6125d4826120d8565b9050602081019050919050565b82818337600083830152505050565b60006126036125fe846125b0565b612595565b90508281526020810184848401111561261f5761261e612530565b5b61262a8482856125e1565b509392505050565b600082601f8301126126475761264661243e565b5b81356126578482602086016125f0565b91505092915050565b6000806000806080858703121561267a57612679612003565b5b60006126888782880161221a565b94505060206126998782880161221a565b93505060406126aa87828801612165565b925050606085013567ffffffffffffffff8111156126cb576126ca612008565b5b6126d787828801612632565b91505092959194509250565b600080604083850312156126fa576126f9612003565b5b60006127088582860161221a565b92505060206127198582860161221a565b9150509250929050565b7f4e487b7100000000000000000000000000000000000000000000000000000000600052602260045260246000fd5b6000600282049050600182168061276a57607f821691505b60208210810361277d5761277c612723565b5b50919050565b7f4552433732313a20617070726f76616c20746f2063757272656e74206f776e6560008201527f7200000000000000000000000000000000000000000000000000000000000000602082015250565b60006127df60218361209d565b91506127ea82612783565b604082019050919050565b6000602082019050818103600083015261280e816127d2565b9050919050565b7f4552433732313a20617070726f76652063616c6c6572206973206e6f7420746f60008201527f6b656e206f776e6572206f7220617070726f76656420666f7220616c6c000000602082015250565b6000612871603d8361209d565b915061287c82612815565b604082019050919050565b600060208201905081810360008301526128a081612864565b9050919050565b7f4552433732313a2063616c6c6572206973206e6f7420746f6b656e206f776e6560008201527f72206f7220617070726f76656400000000000000000000000000000000000000602082015250565b6000612903602d8361209d565b915061290e826128a7565b604082019050919050565b60006020820190508181036000830152612932816128f6565b9050919050565b600081905092915050565b50565b6000612954600083612939565b915061295f82612944565b600082019050919050565b600061297582612947565b9150819050919050565b7f5769746864726177206661696c65640000000000000000000000000000000000600082015250565b60006129b5600f8361209d565b91506129c08261297f565b602082019050919050565b600060208201905081810360008301526129e4816129a8565b9050919050565b7f4552433732313a20696e76616c696420746f6b656e2049440000000000000000600082015250565b6000612a2160188361209d565b9150612a2c826129eb565b602082019050919050565b60006020820190508181036000830152612a5081612a14565b9050919050565b7f4552433732313a2061646472657373207a65726f206973206e6f74206120766160008201527f6c6964206f776e65720000000000000000000000000000000000000000000000602082015250565b6000612ab360298361209d565b9150612abe82612a57565b604082019050919050565b60006020820190508181036000830152612ae281612aa6565b9050919050565b600082905092915050565b60008190508160005260206000209050919050565b60006020601f8301049050919050565b600082821b905092915050565b600060088302612b567fffffffffffffffffffffffffffffffffffffffffffffffffffffffffffffffff82612b19565b612b608683612b19565b95508019841693508086168417925050509392505050565b6000819050919050565b6000612b9d612b98612b9384612144565b612b78565b612144565b9050919050565b6000819050919050565b612bb783612b82565b612bcb612bc382612ba4565b848454612b26565b825550505050565b600090565b612be0612bd3565b612beb818484612bae565b505050565b5b81811015612c0f57612c04600082612bd8565b600181019050612bf1565b5050565b601f821115612c5457612c2581612af4565b612c2e84612b09565b81016020851015612c3d578190505b612c51612c4985612b09565b830182612bf0565b50505b505050565b600082821c905092915050565b6000612c7760001984600802612c59565b1980831691505092915050565b6000612c908383612c66565b9150826002028217905092915050565b612caa8383612ae9565b67ffffffffffffffff811115612cc357612cc2612535565b5b612ccd8254612752565b612cd8828285612c13565b6000601f831160018114612d075760008415612cf5578287013590505b612cff8582612c84565b865550612d67565b601f198416612d1586612af4565b60005b82811015612d3d57848901358255600182019150602085019450602081019050612d18565b86831015612d5a5784890135612d56601f891682612c66565b8355505b6001600288020188555050505b50505050505050565b7f4d696e74206973206e6f7420656e61626c656400000000000000000000000000600082015250565b6000612da660138361209d565b9150612db182612d70565b602082019050919050565b60006020820190508181036000830152612dd581612d99565b9050919050565b7f4e487b7100000000000000000000000000000000000000000000000000000000600052601160045260246000fd5b6000612e1682612144565b9150612e2183612144565b9250828202612e2f81612144565b91508282048414831517612e4657612e45612ddc565b5b5092915050565b7f57726f6e67206d696e742076616c756500000000000000000000000000000000600082015250565b6000612e8360108361209d565b9150612e8e82612e4d565b602082019050919050565b60006020820190508181036000830152612eb281612e76565b9050919050565b6000612ec482612144565b9150612ecf83612144565b9250828201905080821115612ee757612ee6612ddc565b5b92915050565b7f536f6c64206f7574000000000000000000000000000000000000000000000000600082015250565b6000612f2360088361209d565b9150612f2e82612eed565b602082019050919050565b60006020820190508181036000830152612f5281612f16565b9050919050565b7f457863656564206d6178207065722077616c6c65740000000000000000000000600082015250565b6000612f8f60158361209d565b9150612f9a82612f59565b602082019050919050565b60006020820190508181036000830152612fbe81612f82565b9050919050565b6000612fd082612345565b9150612fdb83612345565b9250828201905060ff811115612ff457612ff3612ddc565b5b92915050565b600061300582612144565b91507fffffffffffffffffffffffffffffffffffffffffffffffffffffffffffffffff820361303757613036612ddc565b5b600182019050919050565b600061304d82612345565b915060ff82036130605761305f612ddc565b5b600182019050919050565b7f546f6b656e20646f6573206e6f74206578697374000000000000000000000000600082015250565b60006130a160148361209d565b91506130ac8261306b565b602082019050919050565b600060208201905081810360008301526130d081613094565b9050919050565b600081905092915050565b600081546130ef81612752565b6130f981866130d7565b9450600182166000811461311457600181146131295761315c565b60ff198316865281151582028601935061315c565b61313285612af4565b60005b8381101561315457815481890152600182019150602081019050613135565b838801955050505b50505092915050565b600061317182856130e2565b915061317d82846130e2565b91508190509392505050565b7f4f776e61626c653a206e6577206f776e657220697320746865207a65726f206160008201527f6464726573730000000000000000000000000000000000000000000000000000602082015250565b60006131e560268361209d565b91506131f082613189565b604082019050919050565b60006020820190508181036000830152613214816131d8565b9050919050565b7f4f776e61626c653a2063616c6c6572206973206e6f7420746865206f776e6572600082015250565b600061325160208361209d565b915061325c8261321b565b602082019050919050565b6000602082019050818103600083015261328081613244565b9050919050565b7f4552433732313a207472616e736665722066726f6d20696e636f72726563742060008201527f6f776e6572000000000000000000000000000000000000000000000000000000602082015250565b60006132e360258361209d565b91506132ee82613287565b604082019050919050565b60006020820190508181036000830152613312816132d6565b9050919050565b7f4552433732313a207472616e7366657220746f20746865207a65726f2061646460008201527f7265737300000000000000000000000000000000000000000000000000000000602082015250565b600061337560248361209d565b915061338082613319565b604082019050919050565b600060208201905081810360008301526133a481613368565b9050919050565b7f4552433732313a20617070726f766520746f2063616c6c657200000000000000600082015250565b60006133e160198361209d565b91506133ec826133ab565b602082019050919050565b60006020820190508181036000830152613410816133d4565b9050919050565b7f4552433732313a207472616e7366657220746f206e6f6e20455243373231526560008201527f63656976657220696d706c656d656e7465720000000000000000000000000000602082015250565b600061347360328361209d565b915061347e82613417565b604082019050919050565b600060208201905081810360008301526134a281613466565b9050919050565b600081519050919050565b600082825260208201905092915050565b60006134d0826134a9565b6134da81856134b4565b93506134ea8185602086016120ae565b6134f3816120d8565b840191505092915050565b600060808201905061351360008301876121d9565b61352060208301866121d9565b61352d604083018561226f565b818103606083015261353f81846134c5565b905095945050505050565b60008151905061355981612039565b92915050565b60006020828403121561357557613574612003565b5b60006135838482850161354a565b91505092915050565b7f4552433732313a206d696e7420746f20746865207a65726f2061646472657373600082015250565b60006135c260208361209d565b91506135cd8261358c565b602082019050919050565b600060208201905081810360008301526135f1816135b5565b9050919050565b7f4552433732313a20746f6b656e20616c7265616479206d696e74656400000000600082015250565b600061362e601c8361209d565b9150613639826135f8565b602082019050919050565b6000602082019050818103600083015261365d81613621565b905091905056fea264697066735822122006927bdad8e455dcd9c9eeeb536ac5f9f56a2cb3fc1129646db91cd07f001ad864736f6c63430008140033",
  "linkReferences": {},
  "deployedLinkReferences": {}
}