{
  "_format": "hh-sol-artifact-1",
  "contractName": "MinterNFT",
  "sourceName": "contracts/MinterNFT.sol",
  "abi": [
    {
      "inputs": [
        {
          "internalType": "string",
          "name": "_tokenUri",
          "type": "string"
        },
        {
          "internalType": "string",
          "name": "_extension",
          "type": "string"
        },
        {
          "internalType": "address",
          "name": "_passNftAddress",
          "type": "address"
        }
      ],
      "stateMutability": "payable",
      "type": "constructor"
    },
    {
      "anonymous": false,
      "inputs": [
        {
          "indexed": true,
          "internalType": "address",
          "name": "owner",
          "type": "address"
        },
        {
          "indexed": true,
          "internalType": "address",
          "name": "approved",
          "type": "address"
        },
        {
          "indexed": true,
          "internalType": "uint256",
          "name": "tokenId",
          "type": "uint256"
        }
      ],
      "name": "Approval",
      "type": "event"
    },
    {
      "anonymous": false,
      "inputs": [
        {
          "indexed": true,
          "internalType": "address",
          "name": "owner",
          "type": "address"
        },
        {
          "indexed": true,
          "internalType": "address",
          "name": "operator",
          "type": "address"
        },
        {
          "indexed": false,
          "internalType": "bool",
          "name": "approved",
          "type": "bool"
        }
      ],
      "name": "ApprovalForAll",
      "type": "event"
    },
    {
      "anonymous": false,
      "inputs": [
        {
          "indexed": true,
          "internalType": "address",
          "name": "previousOwner",
          "type": "address"
        },
        {
          "indexed": true,
          "internalType": "address",
          "name": "newOwner",
          "type": "address"
        }
      ],
      "name": "OwnershipTransferred",
      "type": "event"
    },
    {
      "anonymous": false,
      "inputs": [
        {
          "indexed": true,
          "internalType": "address",
          "name": "from",
          "type": "address"
        },
        {
          "indexed": true,
          "internalType": "address",
          "name": "to",
          "type": "address"
        },
        {
          "indexed": true,
          "internalType": "uint256",
          "name": "tokenId",
          "type": "uint256"
        }
      ],
      "name": "Transfer",
      "type": "event"
    },
    {
      "inputs": [
        {
          "internalType": "address",
          "name": "to",
          "type": "address"
        },
        {
          "internalType": "uint256",
          "name": "tokenId",
          "type": "uint256"
        }
      ],
      "name": "approve",
      "outputs": [],
      "stateMutability": "nonpayable",
      "type": "function"
    },
    {
      "inputs": [
        {
          "internalType": "address",
          "name": "owner",
          "type": "address"
        }
      ],
      "name": "balanceOf",
      "outputs": [
        {
          "internalType": "uint256",
          "name": "",
          "type": "uint256"
        }
      ],
      "stateMutability": "view",
      "type": "function"
    },
    {
      "inputs": [
        {
          "internalType": "uint256",
          "name": "tokenId",
          "type": "uint256"
        }
      ],
      "name": "getApproved",
      "outputs": [
        {
          "internalType": "address",
          "name": "",
          "type": "address"
        }
      ],
      "stateMutability": "view",
      "type": "function"
    },
    {
      "inputs": [
        {
          "internalType": "address",
          "name": "owner",
          "type": "address"
        },
        {
          "internalType": "address",
          "name": "operator",
          "type": "address"
        }
      ],
      "name": "isApprovedForAll",
      "outputs": [
        {
          "internalType": "bool",
          "name": "",
          "type": "bool"
        }
      ],
      "stateMutability": "view",
      "type": "function"
    },
    {
      "inputs": [],
      "name": "isPublicMintEnabled",
      "outputs": [
        {
          "internalType": "bool",
          "name": "",
          "type": "bool"
        }
      ],
      "stateMutability": "view",
      "type": "function"
    },
    {
      "inputs": [],
      "name": "mint",
      "outputs": [],
      "stateMutability": "payable",
      "type": "function"
    },
    {
      "inputs": [],
      "name": "mintPrice",
      "outputs": [
        {
          "internalType": "uint256",
          "name": "",
          "type": "uint256"
        }
      ],
      "stateMutability": "view",
      "type": "function"
    },
    {
      "inputs": [],
      "name": "name",
      "outputs": [
        {
          "internalType": "string",
          "name": "",
          "type": "string"
        }
      ],
      "stateMutability": "view",
      "type": "function"
    },
    {
      "inputs": [],
      "name": "owner",
      "outputs": [
        {
          "internalType": "address",
          "name": "",
          "type": "address"
        }
      ],
      "stateMutability": "view",
      "type": "function"
    },
    {
      "inputs": [
        {
          "internalType": "uint256",
          "name": "tokenId",
          "type": "uint256"
        }
      ],
      "name": "ownerOf",
      "outputs": [
        {
          "internalType": "address",
          "name": "",
          "type": "address"
        }
      ],
      "stateMutability": "view",
      "type": "function"
    },
    {
      "inputs": [],
      "name": "passNftAddress",
      "outputs": [
        {
          "internalType": "address",
          "name": "",
          "type": "address"
        }
      ],
      "stateMutability": "view",
      "type": "function"
    },
    {
      "inputs": [],
      "name": "renounceOwnership",
      "outputs": [],
      "stateMutability": "nonpayable",
      "type": "function"
    },
    {
      "inputs": [
        {
          "internalType": "address",
          "name": "from",
          "type": "address"
        },
        {
          "internalType": "address",
          "name": "to",
          "type": "address"
        },
        {
          "internalType": "uint256",
          "name": "tokenId",
          "type": "uint256"
        }
      ],
      "name": "safeTransferFrom",
      "outputs": [],
      "stateMutability": "nonpayable",
      "type": "function"
    },
    {
      "inputs": [
        {
          "internalType": "address",
          "name": "from",
          "type": "address"
        },
        {
          "internalType": "address",
          "name": "to",
          "type": "address"
        },
        {
          "internalType": "uint256",
          "name": "tokenId",
          "type": "uint256"
        },
        {
          "internalType": "bytes",
          "name": "data",
          "type": "bytes"
        }
      ],
      "name": "safeTransferFrom",
      "outputs": [],
      "stateMutability": "nonpayable",
      "type": "function"
    },
    {
      "inputs": [
        {
          "internalType": "address",
          "name": "operator",
          "type": "address"
        },
        {
          "internalType": "bool",
          "name": "approved",
          "type": "bool"
        }
      ],
      "name": "setApprovalForAll",
      "outputs": [],
      "stateMutability": "nonpayable",
      "type": "function"
    },
    {
      "inputs": [
        {
          "internalType": "string",
          "name": "_baseTokenUri",
          "type": "string"
        }
      ],
      "name": "setBaseTokenUri",
      "outputs": [],
      "stateMutability": "nonpayable",
      "type": "function"
    },
    {
      "inputs": [
        {
          "internalType": "bool",
          "name": "_isPublicMintEnabled",
          "type": "bool"
        }
      ],
      "name": "setIsPublicMintEnabled",
      "outputs": [],
      "stateMutability": "nonpayable",
      "type": "function"
    },
    {
      "inputs": [
        {
          "internalType": "string",
          "name": "_tokenExtensionName",
          "type": "string"
        }
      ],
      "name": "setTokenExtensionName",
      "outputs": [],
      "stateMutability": "nonpayable",
      "type": "function"
    },
    {
      "inputs": [
        {
          "internalType": "address payable",
          "name": "_address",
          "type": "address"
        }
      ],
      "name": "setWithdrawWallet",
      "outputs": [],
      "stateMutability": "nonpayable",
      "type": "function"
    },
    {
      "inputs": [
        {
          "internalType": "bytes4",
          "name": "interfaceId",
          "type": "bytes4"
        }
      ],
      "name": "supportsInterface",
      "outputs": [
        {
          "internalType": "bool",
          "name": "",
          "type": "bool"
        }
      ],
      "stateMutability": "view",
      "type": "function"
    },
    {
      "inputs": [],
      "name": "symbol",
      "outputs": [
        {
          "internalType": "string",
          "name": "",
          "type": "string"
        }
      ],
      "stateMutability": "view",
      "type": "function"
    },
    {
      "inputs": [
        {
          "internalType": "uint256",
          "name": "tokenId",
          "type": "uint256"
        }
      ],
      "name": "tokenURI",
      "outputs": [
        {
          "internalType": "string",
          "name": "",
          "type": "string"
        }
      ],
      "stateMutability": "view",
      "type": "function"
    },
    {
      "inputs": [],
      "name": "totalSupply",
      "outputs": [
        {
          "internalType": "uint256",
          "name": "",
          "type": "uint256"
        }
      ],
      "stateMutability": "view",
      "type": "function"
    },
    {
      "inputs": [
        {
          "internalType": "address",
          "name": "from",
          "type": "address"
        },
        {
          "internalType": "address",
          "name": "to",
          "type": "address"
        },
        {
          "internalType": "uint256",
          "name": "tokenId",
          "type": "uint256"
        }
      ],
      "name": "transferFrom",
      "outputs": [],
      "stateMutability": "nonpayable",
      "type": "function"
    },
    {
      "inputs": [
        {
          "internalType": "address",
          "name": "newOwner",
          "type": "address"
        }
      ],
      "name": "transferOwnership",
      "outputs": [],
      "stateMutability": "nonpayable",
      "type": "function"
    },
    {
      "inputs": [],
      "name": "withdraw",
      "outputs": [],
      "stateMutability": "nonpayable",
      "type": "function"
    },
    {
      "inputs": [],
      "name": "withdrawWallet",
      "outputs": [
        {
          "internalType": "address payable",
          "name": "",
          "type": "address"
        }
      ],
      "stateMutability": "view",
      "type": "function"
    }
  ],
  "bytecode": "0x608060405260405162003fc438038062003fc48339818101604052810190620000299190620004fa565b6040518060400160405280600d81526020017f4d696e746572204149204e4654000000000000000000000000000000000000008152506040518060400160405280600381526020017f4d414900000000000000000000000000000000000000000000000000000000008152508160009081620000a69190620007df565b508060019081620000b89190620007df565b505050620000db620000cf6200023460201b60201c565b6200023c60201b60201c565b6000839050600081511162000127576040517f08c379a00000000000000000000000000000000000000000000000000000000081526004016200011e9062000927565b60405180910390fd5b6000839050600081511162000173576040517f08c379a00000000000000000000000000000000000000000000000000000000081526004016200016a90620009bf565b60405180910390fd5b6000600881905550600060098190555033600d60006101000a81548173ffffffffffffffffffffffffffffffffffffffff021916908373ffffffffffffffffffffffffffffffffffffffff16021790555084600b9081620001d59190620007df565b5083600c9081620001e79190620007df565b5082600760006101000a81548173ffffffffffffffffffffffffffffffffffffffff021916908373ffffffffffffffffffffffffffffffffffffffff1602179055505050505050620009e1565b600033905090565b6000600660009054906101000a900473ffffffffffffffffffffffffffffffffffffffff16905081600660006101000a81548173ffffffffffffffffffffffffffffffffffffffff021916908373ffffffffffffffffffffffffffffffffffffffff1602179055508173ffffffffffffffffffffffffffffffffffffffff168173ffffffffffffffffffffffffffffffffffffffff167f8be0079c531659141344cd1fd0a4f28419497f9722a3daafe3b4186f6b6457e060405160405180910390a35050565b6000604051905090565b600080fd5b600080fd5b600080fd5b600080fd5b6000601f19601f8301169050919050565b7f4e487b7100000000000000000000000000000000000000000000000000000000600052604160045260246000fd5b6200036b8262000320565b810181811067ffffffffffffffff821117156200038d576200038c62000331565b5b80604052505050565b6000620003a262000302565b9050620003b0828262000360565b919050565b600067ffffffffffffffff821115620003d357620003d262000331565b5b620003de8262000320565b9050602081019050919050565b60005b838110156200040b578082015181840152602081019050620003ee565b60008484015250505050565b60006200042e6200042884620003b5565b62000396565b9050828152602081018484840111156200044d576200044c6200031b565b5b6200045a848285620003eb565b509392505050565b600082601f8301126200047a576200047962000316565b5b81516200048c84826020860162000417565b91505092915050565b600073ffffffffffffffffffffffffffffffffffffffff82169050919050565b6000620004c28262000495565b9050919050565b620004d481620004b5565b8114620004e057600080fd5b50565b600081519050620004f481620004c9565b92915050565b6000806000606084860312156200051657620005156200030c565b5b600084015167ffffffffffffffff81111562000537576200053662000311565b5b620005458682870162000462565b935050602084015167ffffffffffffffff81111562000569576200056862000311565b5b620005778682870162000462565b92505060406200058a86828701620004e3565b9150509250925092565b600081519050919050565b7f4e487b7100000000000000000000000000000000000000000000000000000000600052602260045260246000fd5b60006002820490506001821680620005e757607f821691505b602082108103620005fd57620005fc6200059f565b5b50919050565b60008190508160005260206000209050919050565b60006020601f8301049050919050565b600082821b905092915050565b600060088302620006677fffffffffffffffffffffffffffffffffffffffffffffffffffffffffffffffff8262000628565b62000673868362000628565b95508019841693508086168417925050509392505050565b6000819050919050565b6000819050919050565b6000620006c0620006ba620006b4846200068b565b62000695565b6200068b565b9050919050565b6000819050919050565b620006dc836200069f565b620006f4620006eb82620006c7565b84845462000635565b825550505050565b600090565b6200070b620006fc565b62000718818484620006d1565b505050565b5b8181101562000740576200073460008262000701565b6001810190506200071e565b5050565b601f8211156200078f57620007598162000603565b620007648462000618565b8101602085101562000774578190505b6200078c620007838562000618565b8301826200071d565b50505b505050565b600082821c905092915050565b6000620007b46000198460080262000794565b1980831691505092915050565b6000620007cf8383620007a1565b9150826002028217905092915050565b620007ea8262000594565b67ffffffffffffffff81111562000806576200080562000331565b5b620008128254620005ce565b6200081f82828562000744565b600060209050601f83116001811462000857576000841562000842578287015190505b6200084e8582620007c1565b865550620008be565b601f198416620008678662000603565b60005b8281101562000891578489015182556001820191506020850194506020810190506200086a565b86831015620008b15784890151620008ad601f891682620007a1565b8355505b6001600288020188555050505b505050505050565b600082825260208201905092915050565b7f62617365546f6b656e5572692073686f756c64206e6f7420626520656d707479600082015250565b60006200090f602083620008c6565b91506200091c82620008d7565b602082019050919050565b60006020820190508181036000830152620009428162000900565b9050919050565b7f746f6b656e457874656e73696f6e4e616d652073686f756c64206e6f7420626560008201527f20656d7074790000000000000000000000000000000000000000000000000000602082015250565b6000620009a7602683620008c6565b9150620009b48262000949565b604082019050919050565b60006020820190508181036000830152620009da8162000998565b9050919050565b6135d380620009f16000396000f3fe60806040526004361061019c5760003560e01c806370a08231116100ec578063a22cb4651161008a578063c87b56dd11610064578063c87b56dd1461056b578063daa4617d146105a8578063e985e9c5146105d3578063f2fde38b146106105761019c565b8063a22cb465146104f0578063a91f9bcf14610519578063b88d4fde146105425761019c565b80638da5cb5b116100c65780638da5cb5b146104485780639373f4321461047357806395652cfa1461049c57806395d89b41146104c55761019c565b806370a08231146103c9578063715018a61461040657806385d178f41461041d5761019c565b806318160ddd116101595780633ccfd60b116101335780633ccfd60b1461032157806342842e0e146103385780636352211e146103615780636817c76c1461039e5761019c565b806318160ddd146102a45780632373ac22146102cf57806323b872dd146102f85761019c565b80630116bc2d146101a157806301ffc9a7146101cc57806306fdde0314610209578063081812fc14610234578063095ea7b3146102715780631249c58b1461029a575b600080fd5b3480156101ad57600080fd5b506101b6610639565b6040516101c39190612017565b60405180910390f35b3480156101d857600080fd5b506101f360048036038101906101ee919061209e565b61064c565b6040516102009190612017565b60405180910390f35b34801561021557600080fd5b5061021e61072e565b60405161022b919061215b565b60405180910390f35b34801561024057600080fd5b5061025b600480360381019061025691906121b3565b6107c0565b6040516102689190612221565b60405180910390f35b34801561027d57600080fd5b5061029860048036038101906102939190612268565b610806565b005b6102a261091d565b005b3480156102b057600080fd5b506102b9610a88565b6040516102c691906122b7565b60405180910390f35b3480156102db57600080fd5b506102f660048036038101906102f191906122fe565b610a8e565b005b34801561030457600080fd5b5061031f600480360381019061031a919061232b565b610ab3565b005b34801561032d57600080fd5b50610336610b13565b005b34801561034457600080fd5b5061035f600480360381019061035a919061232b565b610bec565b005b34801561036d57600080fd5b50610388600480360381019061038391906121b3565b610c0c565b6040516103959190612221565b60405180910390f35b3480156103aa57600080fd5b506103b3610c92565b6040516103c091906122b7565b60405180910390f35b3480156103d557600080fd5b506103f060048036038101906103eb919061237e565b610c98565b6040516103fd91906122b7565b60405180910390f35b34801561041257600080fd5b5061041b610d4f565b005b34801561042957600080fd5b50610432610d63565b60405161043f91906123cc565b60405180910390f35b34801561045457600080fd5b5061045d610d89565b60405161046a9190612221565b60405180910390f35b34801561047f57600080fd5b5061049a60048036038101906104959190612413565b610db3565b005b3480156104a857600080fd5b506104c360048036038101906104be91906124a5565b610dff565b005b3480156104d157600080fd5b506104da610e1d565b6040516104e7919061215b565b60405180910390f35b3480156104fc57600080fd5b50610517600480360381019061051291906124f2565b610eaf565b005b34801561052557600080fd5b50610540600480360381019061053b91906124a5565b610ec5565b005b34801561054e57600080fd5b5061056960048036038101906105649190612662565b610ee3565b005b34801561057757600080fd5b50610592600480360381019061058d91906121b3565b610f45565b60405161059f919061215b565b60405180910390f35b3480156105b457600080fd5b506105bd610fc4565b6040516105ca9190612221565b60405180910390f35b3480156105df57600080fd5b506105fa60048036038101906105f591906126e5565b610fea565b6040516106079190612017565b60405180910390f35b34801561061c57600080fd5b506106376004803603810190610632919061237e565b61107e565b005b600a60009054906101000a900460ff1681565b60007f80ac58cd000000000000000000000000000000000000000000000000000000007bffffffffffffffffffffffffffffffffffffffffffffffffffffffff1916827bffffffffffffffffffffffffffffffffffffffffffffffffffffffff1916148061071757507f5b5e139f000000000000000000000000000000000000000000000000000000007bffffffffffffffffffffffffffffffffffffffffffffffffffffffff1916827bffffffffffffffffffffffffffffffffffffffffffffffffffffffff1916145b80610727575061072682611101565b5b9050919050565b60606000805461073d90612754565b80601f016020809104026020016040519081016040528092919081815260200182805461076990612754565b80156107b65780601f1061078b576101008083540402835291602001916107b6565b820191906000526020600020905b81548152906001019060200180831161079957829003601f168201915b5050505050905090565b60006107cb8261116b565b6004600083815260200190815260200160002060009054906101000a900473ffffffffffffffffffffffffffffffffffffffff169050919050565b600061081182610c0c565b90508073ffffffffffffffffffffffffffffffffffffffff168373ffffffffffffffffffffffffffffffffffffffff1603610881576040517f08c379a0000000000000000000000000000000000000000000000000000000008152600401610878906127f7565b60405180910390fd5b8073ffffffffffffffffffffffffffffffffffffffff166108a06111b6565b73ffffffffffffffffffffffffffffffffffffffff1614806108cf57506108ce816108c96111b6565b610fea565b5b61090e576040517f08c379a000000000000000000000000000000000000000000000000000000000815260040161090590612889565b60405180910390fd5b61091883836111be565b505050565b600a60009054906101000a900460ff1661096c576040517f08c379a0000000000000000000000000000000000000000000000000000000008152600401610963906128f5565b60405180910390fd5b6000600760009054906101000a900473ffffffffffffffffffffffffffffffffffffffff1673ffffffffffffffffffffffffffffffffffffffff166370a08231336040518263ffffffff1660e01b81526004016109c99190612221565b602060405180830381865afa1580156109e6573d6000803e3d6000fd5b505050506040513d601f19601f82011682018060405250810190610a0a919061292a565b905060008111610a4f576040517f08c379a0000000000000000000000000000000000000000000000000000000008152600401610a46906129a3565b60405180910390fd5b60006001600954610a6091906129f2565b9050610a6c3382611277565b60096000815480929190610a7f90612a26565b91905055505050565b60095481565b610a96611295565b80600a60006101000a81548160ff02191690831515021790555050565b610ac4610abe6111b6565b82611313565b610b03576040517f08c379a0000000000000000000000000000000000000000000000000000000008152600401610afa90612ae0565b60405180910390fd5b610b0e8383836113a8565b505050565b610b1b611295565b6000600d60009054906101000a900473ffffffffffffffffffffffffffffffffffffffff1673ffffffffffffffffffffffffffffffffffffffff1647604051610b6390612b31565b60006040518083038185875af1925050503d8060008114610ba0576040519150601f19603f3d011682016040523d82523d6000602084013e610ba5565b606091505b5050905080610be9576040517f08c379a0000000000000000000000000000000000000000000000000000000008152600401610be090612b92565b60405180910390fd5b50565b610c0783838360405180602001604052806000815250610ee3565b505050565b600080610c18836116a1565b9050600073ffffffffffffffffffffffffffffffffffffffff168173ffffffffffffffffffffffffffffffffffffffff1603610c89576040517f08c379a0000000000000000000000000000000000000000000000000000000008152600401610c8090612bfe565b60405180910390fd5b80915050919050565b60085481565b60008073ffffffffffffffffffffffffffffffffffffffff168273ffffffffffffffffffffffffffffffffffffffff1603610d08576040517f08c379a0000000000000000000000000000000000000000000000000000000008152600401610cff90612c90565b60405180910390fd5b600360008373ffffffffffffffffffffffffffffffffffffffff1673ffffffffffffffffffffffffffffffffffffffff168152602001908152602001600020549050919050565b610d57611295565b610d6160006116de565b565b600d60009054906101000a900473ffffffffffffffffffffffffffffffffffffffff1681565b6000600660009054906101000a900473ffffffffffffffffffffffffffffffffffffffff16905090565b610dbb611295565b80600d60006101000a81548173ffffffffffffffffffffffffffffffffffffffff021916908373ffffffffffffffffffffffffffffffffffffffff16021790555050565b610e07611295565b8181600b9182610e18929190612e67565b505050565b606060018054610e2c90612754565b80601f0160208091040260200160405190810160405280929190818152602001828054610e5890612754565b8015610ea55780601f10610e7a57610100808354040283529160200191610ea5565b820191906000526020600020905b815481529060010190602001808311610e8857829003601f168201915b5050505050905090565b610ec1610eba6111b6565b83836117a4565b5050565b610ecd611295565b8181600c9182610ede929190612e67565b505050565b610ef4610eee6111b6565b83611313565b610f33576040517f08c379a0000000000000000000000000000000000000000000000000000000008152600401610f2a90612ae0565b60405180910390fd5b610f3f84848484611910565b50505050565b6060610f508261196c565b610f8f576040517f08c379a0000000000000000000000000000000000000000000000000000000008152600401610f8690612f83565b60405180910390fd5b600b610f9a836119ad565b600c604051602001610fae93929190613062565b6040516020818303038152906040529050919050565b600760009054906101000a900473ffffffffffffffffffffffffffffffffffffffff1681565b6000600560008473ffffffffffffffffffffffffffffffffffffffff1673ffffffffffffffffffffffffffffffffffffffff16815260200190815260200160002060008373ffffffffffffffffffffffffffffffffffffffff1673ffffffffffffffffffffffffffffffffffffffff16815260200190815260200160002060009054906101000a900460ff16905092915050565b611086611295565b600073ffffffffffffffffffffffffffffffffffffffff168173ffffffffffffffffffffffffffffffffffffffff16036110f5576040517f08c379a00000000000000000000000000000000000000000000000000000000081526004016110ec90613105565b60405180910390fd5b6110fe816116de565b50565b60007f01ffc9a7000000000000000000000000000000000000000000000000000000007bffffffffffffffffffffffffffffffffffffffffffffffffffffffff1916827bffffffffffffffffffffffffffffffffffffffffffffffffffffffff1916149050919050565b6111748161196c565b6111b3576040517f08c379a00000000000000000000000000000000000000000000000000000000081526004016111aa90612bfe565b60405180910390fd5b50565b600033905090565b816004600083815260200190815260200160002060006101000a81548173ffffffffffffffffffffffffffffffffffffffff021916908373ffffffffffffffffffffffffffffffffffffffff160217905550808273ffffffffffffffffffffffffffffffffffffffff1661123183610c0c565b73ffffffffffffffffffffffffffffffffffffffff167f8c5be1e5ebec7d5bd14f71427d1e84f3dd0314c0f7b2291e5b200ac8c7c3b92560405160405180910390a45050565b611291828260405180602001604052806000815250611a7b565b5050565b61129d6111b6565b73ffffffffffffffffffffffffffffffffffffffff166112bb610d89565b73ffffffffffffffffffffffffffffffffffffffff1614611311576040517f08c379a000000000000000000000000000000000000000000000000000000000815260040161130890613171565b60405180910390fd5b565b60008061131f83610c0c565b90508073ffffffffffffffffffffffffffffffffffffffff168473ffffffffffffffffffffffffffffffffffffffff16148061136157506113608185610fea565b5b8061139f57508373ffffffffffffffffffffffffffffffffffffffff16611387846107c0565b73ffffffffffffffffffffffffffffffffffffffff16145b91505092915050565b8273ffffffffffffffffffffffffffffffffffffffff166113c882610c0c565b73ffffffffffffffffffffffffffffffffffffffff161461141e576040517f08c379a000000000000000000000000000000000000000000000000000000000815260040161141590613203565b60405180910390fd5b600073ffffffffffffffffffffffffffffffffffffffff168273ffffffffffffffffffffffffffffffffffffffff160361148d576040517f08c379a000000000000000000000000000000000000000000000000000000000815260040161148490613295565b60405180910390fd5b61149a8383836001611ad6565b8273ffffffffffffffffffffffffffffffffffffffff166114ba82610c0c565b73ffffffffffffffffffffffffffffffffffffffff1614611510576040517f08c379a000000000000000000000000000000000000000000000000000000000815260040161150790613203565b60405180910390fd5b6004600082815260200190815260200160002060006101000a81549073ffffffffffffffffffffffffffffffffffffffff02191690556001600360008573ffffffffffffffffffffffffffffffffffffffff1673ffffffffffffffffffffffffffffffffffffffff168152602001908152602001600020600082825403925050819055506001600360008473ffffffffffffffffffffffffffffffffffffffff1673ffffffffffffffffffffffffffffffffffffffff16815260200190815260200160002060008282540192505081905550816002600083815260200190815260200160002060006101000a81548173ffffffffffffffffffffffffffffffffffffffff021916908373ffffffffffffffffffffffffffffffffffffffff160217905550808273ffffffffffffffffffffffffffffffffffffffff168473ffffffffffffffffffffffffffffffffffffffff167fddf252ad1be2c89b69c2b068fc378daa952ba7f163c4a11628f55a4df523b3ef60405160405180910390a461169c8383836001611adc565b505050565b60006002600083815260200190815260200160002060009054906101000a900473ffffffffffffffffffffffffffffffffffffffff169050919050565b6000600660009054906101000a900473ffffffffffffffffffffffffffffffffffffffff16905081600660006101000a81548173ffffffffffffffffffffffffffffffffffffffff021916908373ffffffffffffffffffffffffffffffffffffffff1602179055508173ffffffffffffffffffffffffffffffffffffffff168173ffffffffffffffffffffffffffffffffffffffff167f8be0079c531659141344cd1fd0a4f28419497f9722a3daafe3b4186f6b6457e060405160405180910390a35050565b8173ffffffffffffffffffffffffffffffffffffffff168373ffffffffffffffffffffffffffffffffffffffff1603611812576040517f08c379a000000000000000000000000000000000000000000000000000000000815260040161180990613301565b60405180910390fd5b80600560008573ffffffffffffffffffffffffffffffffffffffff1673ffffffffffffffffffffffffffffffffffffffff16815260200190815260200160002060008473ffffffffffffffffffffffffffffffffffffffff1673ffffffffffffffffffffffffffffffffffffffff16815260200190815260200160002060006101000a81548160ff0219169083151502179055508173ffffffffffffffffffffffffffffffffffffffff168373ffffffffffffffffffffffffffffffffffffffff167f17307eab39ab6107e8899845ad3d59bd9653f200f220920489ca2b5937696c31836040516119039190612017565b60405180910390a3505050565b61191b8484846113a8565b61192784848484611ae2565b611966576040517f08c379a000000000000000000000000000000000000000000000000000000000815260040161195d90613393565b60405180910390fd5b50505050565b60008073ffffffffffffffffffffffffffffffffffffffff1661198e836116a1565b73ffffffffffffffffffffffffffffffffffffffff1614159050919050565b6060600060016119bc84611c69565b01905060008167ffffffffffffffff8111156119db576119da612537565b5b6040519080825280601f01601f191660200182016040528015611a0d5781602001600182028036833780820191505090505b509050600082602001820190505b600115611a70578080600190039150507f3031323334353637383961626364656600000000000000000000000000000000600a86061a8153600a8581611a6457611a636133b3565b5b04945060008503611a1b575b819350505050919050565b611a858383611dbc565b611a926000848484611ae2565b611ad1576040517f08c379a0000000000000000000000000000000000000000000000000000000008152600401611ac890613393565b60405180910390fd5b505050565b50505050565b50505050565b6000611b038473ffffffffffffffffffffffffffffffffffffffff16611fd9565b15611c5c578373ffffffffffffffffffffffffffffffffffffffff1663150b7a02611b2c6111b6565b8786866040518563ffffffff1660e01b8152600401611b4e9493929190613437565b6020604051808303816000875af1925050508015611b8a57506040513d601f19601f82011682018060405250810190611b879190613498565b60015b611c0c573d8060008114611bba576040519150601f19603f3d011682016040523d82523d6000602084013e611bbf565b606091505b506000815103611c04576040517f08c379a0000000000000000000000000000000000000000000000000000000008152600401611bfb90613393565b60405180910390fd5b805181602001fd5b63150b7a0260e01b7bffffffffffffffffffffffffffffffffffffffffffffffffffffffff1916817bffffffffffffffffffffffffffffffffffffffffffffffffffffffff191614915050611c61565b600190505b949350505050565b600080600090507a184f03e93ff9f4daa797ed6e38ed64bf6a1f0100000000000000008310611cc7577a184f03e93ff9f4daa797ed6e38ed64bf6a1f0100000000000000008381611cbd57611cbc6133b3565b5b0492506040810190505b6d04ee2d6d415b85acef81000000008310611d04576d04ee2d6d415b85acef81000000008381611cfa57611cf96133b3565b5b0492506020810190505b662386f26fc100008310611d3357662386f26fc100008381611d2957611d286133b3565b5b0492506010810190505b6305f5e1008310611d5c576305f5e1008381611d5257611d516133b3565b5b0492506008810190505b6127108310611d81576127108381611d7757611d766133b3565b5b0492506004810190505b60648310611da45760648381611d9a57611d996133b3565b5b0492506002810190505b600a8310611db3576001810190505b80915050919050565b600073ffffffffffffffffffffffffffffffffffffffff168273ffffffffffffffffffffffffffffffffffffffff1603611e2b576040517f08c379a0000000000000000000000000000000000000000000000000000000008152600401611e2290613511565b60405180910390fd5b611e348161196c565b15611e74576040517f08c379a0000000000000000000000000000000000000000000000000000000008152600401611e6b9061357d565b60405180910390fd5b611e82600083836001611ad6565b611e8b8161196c565b15611ecb576040517f08c379a0000000000000000000000000000000000000000000000000000000008152600401611ec29061357d565b60405180910390fd5b6001600360008473ffffffffffffffffffffffffffffffffffffffff1673ffffffffffffffffffffffffffffffffffffffff16815260200190815260200160002060008282540192505081905550816002600083815260200190815260200160002060006101000a81548173ffffffffffffffffffffffffffffffffffffffff021916908373ffffffffffffffffffffffffffffffffffffffff160217905550808273ffffffffffffffffffffffffffffffffffffffff16600073ffffffffffffffffffffffffffffffffffffffff167fddf252ad1be2c89b69c2b068fc378daa952ba7f163c4a11628f55a4df523b3ef60405160405180910390a4611fd5600083836001611adc565b5050565b6000808273ffffffffffffffffffffffffffffffffffffffff163b119050919050565b60008115159050919050565b61201181611ffc565b82525050565b600060208201905061202c6000830184612008565b92915050565b6000604051905090565b600080fd5b600080fd5b60007fffffffff0000000000000000000000000000000000000000000000000000000082169050919050565b61207b81612046565b811461208657600080fd5b50565b60008135905061209881612072565b92915050565b6000602082840312156120b4576120b361203c565b5b60006120c284828501612089565b91505092915050565b600081519050919050565b600082825260208201905092915050565b60005b838110156121055780820151818401526020810190506120ea565b60008484015250505050565b6000601f19601f8301169050919050565b600061212d826120cb565b61213781856120d6565b93506121478185602086016120e7565b61215081612111565b840191505092915050565b600060208201905081810360008301526121758184612122565b905092915050565b6000819050919050565b6121908161217d565b811461219b57600080fd5b50565b6000813590506121ad81612187565b92915050565b6000602082840312156121c9576121c861203c565b5b60006121d78482850161219e565b91505092915050565b600073ffffffffffffffffffffffffffffffffffffffff82169050919050565b600061220b826121e0565b9050919050565b61221b81612200565b82525050565b60006020820190506122366000830184612212565b92915050565b61224581612200565b811461225057600080fd5b50565b6000813590506122628161223c565b92915050565b6000806040838503121561227f5761227e61203c565b5b600061228d85828601612253565b925050602061229e8582860161219e565b9150509250929050565b6122b18161217d565b82525050565b60006020820190506122cc60008301846122a8565b92915050565b6122db81611ffc565b81146122e657600080fd5b50565b6000813590506122f8816122d2565b92915050565b6000602082840312156123145761231361203c565b5b6000612322848285016122e9565b91505092915050565b6000806000606084860312156123445761234361203c565b5b600061235286828701612253565b935050602061236386828701612253565b92505060406123748682870161219e565b9150509250925092565b6000602082840312156123945761239361203c565b5b60006123a284828501612253565b91505092915050565b60006123b6826121e0565b9050919050565b6123c6816123ab565b82525050565b60006020820190506123e160008301846123bd565b92915050565b6123f0816123ab565b81146123fb57600080fd5b50565b60008135905061240d816123e7565b92915050565b6000602082840312156124295761242861203c565b5b6000612437848285016123fe565b91505092915050565b600080fd5b600080fd5b600080fd5b60008083601f84011261246557612464612440565b5b8235905067ffffffffffffffff81111561248257612481612445565b5b60208301915083600182028301111561249e5761249d61244a565b5b9250929050565b600080602083850312156124bc576124bb61203c565b5b600083013567ffffffffffffffff8111156124da576124d9612041565b5b6124e68582860161244f565b92509250509250929050565b600080604083850312156125095761250861203c565b5b600061251785828601612253565b9250506020612528858286016122e9565b9150509250929050565b600080fd5b7f4e487b7100000000000000000000000000000000000000000000000000000000600052604160045260246000fd5b61256f82612111565b810181811067ffffffffffffffff8211171561258e5761258d612537565b5b80604052505050565b60006125a1612032565b90506125ad8282612566565b919050565b600067ffffffffffffffff8211156125cd576125cc612537565b5b6125d682612111565b9050602081019050919050565b82818337600083830152505050565b6000612605612600846125b2565b612597565b90508281526020810184848401111561262157612620612532565b5b61262c8482856125e3565b509392505050565b600082601f83011261264957612648612440565b5b81356126598482602086016125f2565b91505092915050565b6000806000806080858703121561267c5761267b61203c565b5b600061268a87828801612253565b945050602061269b87828801612253565b93505060406126ac8782880161219e565b925050606085013567ffffffffffffffff8111156126cd576126cc612041565b5b6126d987828801612634565b91505092959194509250565b600080604083850312156126fc576126fb61203c565b5b600061270a85828601612253565b925050602061271b85828601612253565b9150509250929050565b7f4e487b7100000000000000000000000000000000000000000000000000000000600052602260045260246000fd5b6000600282049050600182168061276c57607f821691505b60208210810361277f5761277e612725565b5b50919050565b7f4552433732313a20617070726f76616c20746f2063757272656e74206f776e6560008201527f7200000000000000000000000000000000000000000000000000000000000000602082015250565b60006127e16021836120d6565b91506127ec82612785565b604082019050919050565b60006020820190508181036000830152612810816127d4565b9050919050565b7f4552433732313a20617070726f76652063616c6c6572206973206e6f7420746f60008201527f6b656e206f776e6572206f7220617070726f76656420666f7220616c6c000000602082015250565b6000612873603d836120d6565b915061287e82612817565b604082019050919050565b600060208201905081810360008301526128a281612866565b9050919050565b7f4d696e74206973206e6f7420656e61626c656400000000000000000000000000600082015250565b60006128df6013836120d6565b91506128ea826128a9565b602082019050919050565b6000602082019050818103600083015261290e816128d2565b9050919050565b60008151905061292481612187565b92915050565b6000602082840312156129405761293f61203c565b5b600061294e84828501612915565b91505092915050565b7f50617373204e4654206973206e6f74206d696e74656400000000000000000000600082015250565b600061298d6016836120d6565b915061299882612957565b602082019050919050565b600060208201905081810360008301526129bc81612980565b9050919050565b7f4e487b7100000000000000000000000000000000000000000000000000000000600052601160045260246000fd5b60006129fd8261217d565b9150612a088361217d565b9250828201905080821115612a2057612a1f6129c3565b5b92915050565b6000612a318261217d565b91507fffffffffffffffffffffffffffffffffffffffffffffffffffffffffffffffff8203612a6357612a626129c3565b5b600182019050919050565b7f4552433732313a2063616c6c6572206973206e6f7420746f6b656e206f776e6560008201527f72206f7220617070726f76656400000000000000000000000000000000000000602082015250565b6000612aca602d836120d6565b9150612ad582612a6e565b604082019050919050565b60006020820190508181036000830152612af981612abd565b9050919050565b600081905092915050565b50565b6000612b1b600083612b00565b9150612b2682612b0b565b600082019050919050565b6000612b3c82612b0e565b9150819050919050565b7f5769746864726177206661696c65640000000000000000000000000000000000600082015250565b6000612b7c600f836120d6565b9150612b8782612b46565b602082019050919050565b60006020820190508181036000830152612bab81612b6f565b9050919050565b7f4552433732313a20696e76616c696420746f6b656e2049440000000000000000600082015250565b6000612be86018836120d6565b9150612bf382612bb2565b602082019050919050565b60006020820190508181036000830152612c1781612bdb565b9050919050565b7f4552433732313a2061646472657373207a65726f206973206e6f74206120766160008201527f6c6964206f776e65720000000000000000000000000000000000000000000000602082015250565b6000612c7a6029836120d6565b9150612c8582612c1e565b604082019050919050565b60006020820190508181036000830152612ca981612c6d565b9050919050565b600082905092915050565b60008190508160005260206000209050919050565b60006020601f8301049050919050565b600082821b905092915050565b600060088302612d1d7fffffffffffffffffffffffffffffffffffffffffffffffffffffffffffffffff82612ce0565b612d278683612ce0565b95508019841693508086168417925050509392505050565b6000819050919050565b6000612d64612d5f612d5a8461217d565b612d3f565b61217d565b9050919050565b6000819050919050565b612d7e83612d49565b612d92612d8a82612d6b565b848454612ced565b825550505050565b600090565b612da7612d9a565b612db2818484612d75565b505050565b5b81811015612dd657612dcb600082612d9f565b600181019050612db8565b5050565b601f821115612e1b57612dec81612cbb565b612df584612cd0565b81016020851015612e04578190505b612e18612e1085612cd0565b830182612db7565b50505b505050565b600082821c905092915050565b6000612e3e60001984600802612e20565b1980831691505092915050565b6000612e578383612e2d565b9150826002028217905092915050565b612e718383612cb0565b67ffffffffffffffff811115612e8a57612e89612537565b5b612e948254612754565b612e9f828285612dda565b6000601f831160018114612ece5760008415612ebc578287013590505b612ec68582612e4b565b865550612f2e565b601f198416612edc86612cbb565b60005b82811015612f0457848901358255600182019150602085019450602081019050612edf565b86831015612f215784890135612f1d601f891682612e2d565b8355505b6001600288020188555050505b50505050505050565b7f546f6b656e20646f6573206e6f74206578697374000000000000000000000000600082015250565b6000612f6d6014836120d6565b9150612f7882612f37565b602082019050919050565b60006020820190508181036000830152612f9c81612f60565b9050919050565b600081905092915050565b60008154612fbb81612754565b612fc58186612fa3565b94506001821660008114612fe05760018114612ff557613028565b60ff1983168652811515820286019350613028565b612ffe85612cbb565b60005b8381101561302057815481890152600182019150602081019050613001565b838801955050505b50505092915050565b600061303c826120cb565b6130468185612fa3565b93506130568185602086016120e7565b80840191505092915050565b600061306e8286612fae565b915061307a8285613031565b91506130868284612fae565b9150819050949350505050565b7f4f776e61626c653a206e6577206f776e657220697320746865207a65726f206160008201527f6464726573730000000000000000000000000000000000000000000000000000602082015250565b60006130ef6026836120d6565b91506130fa82613093565b604082019050919050565b6000602082019050818103600083015261311e816130e2565b9050919050565b7f4f776e61626c653a2063616c6c6572206973206e6f7420746865206f776e6572600082015250565b600061315b6020836120d6565b915061316682613125565b602082019050919050565b6000602082019050818103600083015261318a8161314e565b9050919050565b7f4552433732313a207472616e736665722066726f6d20696e636f72726563742060008201527f6f776e6572000000000000000000000000000000000000000000000000000000602082015250565b60006131ed6025836120d6565b91506131f882613191565b604082019050919050565b6000602082019050818103600083015261321c816131e0565b9050919050565b7f4552433732313a207472616e7366657220746f20746865207a65726f2061646460008201527f7265737300000000000000000000000000000000000000000000000000000000602082015250565b600061327f6024836120d6565b915061328a82613223565b604082019050919050565b600060208201905081810360008301526132ae81613272565b9050919050565b7f4552433732313a20617070726f766520746f2063616c6c657200000000000000600082015250565b60006132eb6019836120d6565b91506132f6826132b5565b602082019050919050565b6000602082019050818103600083015261331a816132de565b9050919050565b7f4552433732313a207472616e7366657220746f206e6f6e20455243373231526560008201527f63656976657220696d706c656d656e7465720000000000000000000000000000602082015250565b600061337d6032836120d6565b915061338882613321565b604082019050919050565b600060208201905081810360008301526133ac81613370565b9050919050565b7f4e487b7100000000000000000000000000000000000000000000000000000000600052601260045260246000fd5b600081519050919050565b600082825260208201905092915050565b6000613409826133e2565b61341381856133ed565b93506134238185602086016120e7565b61342c81612111565b840191505092915050565b600060808201905061344c6000830187612212565b6134596020830186612212565b61346660408301856122a8565b818103606083015261347881846133fe565b905095945050505050565b60008151905061349281612072565b92915050565b6000602082840312156134ae576134ad61203c565b5b60006134bc84828501613483565b91505092915050565b7f4552433732313a206d696e7420746f20746865207a65726f2061646472657373600082015250565b60006134fb6020836120d6565b9150613506826134c5565b602082019050919050565b6000602082019050818103600083015261352a816134ee565b9050919050565b7f4552433732313a20746f6b656e20616c7265616479206d696e74656400000000600082015250565b6000613567601c836120d6565b915061357282613531565b602082019050919050565b600060208201905081810360008301526135968161355a565b905091905056fea2646970667358221220cb549acd2373bc64d4ab7e2bad06359efb95918f97afebb16f9087c00dd3cd9664736f6c63430008140033",
  "linkReferences": {},
  "deployedLinkReferences": {}
}